{
  "contractName": "Certification",
  "abi": [
    {
      "inputs": [],
      "stateMutability": "nonpayable",
      "type": "constructor"
    },
    {
      "inputs": [
        {
          "internalType": "enum Certification.CertificationType",
          "name": "",
          "type": "uint8"
        }
      ],
      "name": "durations",
      "outputs": [
        {
          "internalType": "uint256",
          "name": "",
          "type": "uint256"
        }
      ],
      "stateMutability": "view",
      "type": "function"
    }
  ],
  "bytecode": "0x608060405234801561001057600080fd5b506202a30060008080600681111561002b5761002a6101cd565b5b600681111561003d5761003c6101cd565b5b8152602001908152602001600020819055506202a3006000806001600681111561006a576100696101cd565b5b600681111561007c5761007b6101cd565b5b8152602001908152602001600020819055506293a800600080600260068111156100a9576100a86101cd565b5b60068111156100bb576100ba6101cd565b5b8152602001908152602001600020819055506293a800600080600360068111156100e8576100e76101cd565b5b60068111156100fa576100f96101cd565b5b8152602001908152602001600020819055506293a80060008060046006811115610127576101266101cd565b5b6006811115610139576101386101cd565b5b8152602001908152602001600020819055506293a80060008060056006811115610166576101656101cd565b5b6006811115610178576101776101cd565b5b8152602001908152602001600020819055506293a8006000806006808111156101a4576101a36101cd565b5b60068111156101b6576101b56101cd565b5b8152602001908152602001600020819055506101fc565b7f4e487b7100000000000000000000000000000000000000000000000000000000600052602160045260246000fd5b6101248061020b6000396000f3fe6080604052348015600f57600080fd5b506004361060285760003560e01c80630ae355d314602d575b600080fd5b60436004803603810190603f91906096565b6057565b604051604e919060d5565b60405180910390f35b60006020528060005260406000206000915090505481565b600080fd5b60078110608057600080fd5b50565b6000813590506090816074565b92915050565b60006020828403121560a95760a8606f565b5b600060b5848285016083565b91505092915050565b6000819050919050565b60cf8160be565b82525050565b600060208201905060e8600083018460c8565b9291505056fea26469706673582212205bfb23dfaded3a88242a39139bc520a8a03b53eaa30b7e1cabbf578a4080b9ef64736f6c63430008090033",
  "immutableReferences": {},
  "source": "// SPDX-License-Identifier: MIT\npragma solidity >=0.4.22 <0.9.0;\n\ncontract Certification {\n    enum CertificationType {\n        TAMPONE, TAMPONE_RAPIDO,\n        VACCINO1, VACCINO2, VACCINO3,\n        GUARITO, ALTRO\n    }\n\n    struct GreenPass {\n        string qrcode;\n        address emitter;\n        CertificationType certificationType;\n        uint256 creation;\n        uint duration;\n        bool invalidated;\n    }\n\n    mapping (CertificationType => uint) public durations;\n    constructor () {\n        durations[CertificationType.TAMPONE] = 2 days;\n        durations[CertificationType.TAMPONE_RAPIDO] = 2 days;\n        durations[CertificationType.VACCINO1] = 16 weeks;\n        durations[CertificationType.VACCINO2] = 16 weeks;\n        durations[CertificationType.VACCINO3] = 16 weeks;\n        durations[CertificationType.GUARITO] = 16 weeks;\n        durations[CertificationType.ALTRO] = 16 weeks;\n    }\n}",
  "sourcePath": "/home/alessandro/SDC/progetto-SDC/contracts/Certification.sol",
  "compiler": {
    "name": "solc",
    "version": "0.8.9+commit.e5eed63a.Emscripten.clang"
  },
  "schemaVersion": "3.4.3",
  "updatedAt": "2022-01-31T20:32:21.353Z",
  "devdoc": {
    "kind": "dev",
    "methods": {},
    "version": 1
  },
  "userdoc": {
    "kind": "user",
    "methods": {},
    "version": 1
  }
}