{
  "contractName": "GreenPassCertification",
  "abi": [
    {
      "anonymous": false,
      "inputs": [
        {
          "indexed": true,
          "internalType": "bytes32",
          "name": "role",
          "type": "bytes32"
        },
        {
          "indexed": true,
          "internalType": "bytes32",
          "name": "previousAdminRole",
          "type": "bytes32"
        },
        {
          "indexed": true,
          "internalType": "bytes32",
          "name": "newAdminRole",
          "type": "bytes32"
        }
      ],
      "name": "RoleAdminChanged",
      "type": "event"
    },
    {
      "anonymous": false,
      "inputs": [
        {
          "indexed": true,
          "internalType": "bytes32",
          "name": "role",
          "type": "bytes32"
        },
        {
          "indexed": true,
          "internalType": "address",
          "name": "account",
          "type": "address"
        },
        {
          "indexed": true,
          "internalType": "address",
          "name": "sender",
          "type": "address"
        }
      ],
      "name": "RoleGranted",
      "type": "event"
    },
    {
      "anonymous": false,
      "inputs": [
        {
          "indexed": true,
          "internalType": "bytes32",
          "name": "role",
          "type": "bytes32"
        },
        {
          "indexed": true,
          "internalType": "address",
          "name": "account",
          "type": "address"
        },
        {
          "indexed": true,
          "internalType": "address",
          "name": "sender",
          "type": "address"
        }
      ],
      "name": "RoleRevoked",
      "type": "event"
    },
    {
      "inputs": [],
      "name": "ADMIN_ROLE",
      "outputs": [
        {
          "internalType": "bytes32",
          "name": "",
          "type": "bytes32"
        }
      ],
      "stateMutability": "view",
      "type": "function",
      "constant": true
    },
    {
      "inputs": [],
      "name": "CERTIFICATION_MINTER_ROLE",
      "outputs": [
        {
          "internalType": "bytes32",
          "name": "",
          "type": "bytes32"
        }
      ],
      "stateMutability": "view",
      "type": "function",
      "constant": true
    },
    {
      "inputs": [],
      "name": "DEFAULT_ADMIN_ROLE",
      "outputs": [
        {
          "internalType": "bytes32",
          "name": "",
          "type": "bytes32"
        }
      ],
      "stateMutability": "view",
      "type": "function",
      "constant": true
    },
    {
      "inputs": [
        {
          "internalType": "enum Region.Regions",
          "name": "",
          "type": "uint8"
        }
      ],
      "name": "colors",
      "outputs": [
        {
          "internalType": "enum Region.Colors",
          "name": "",
          "type": "uint8"
        }
      ],
      "stateMutability": "view",
      "type": "function",
      "constant": true
    },
    {
      "inputs": [
        {
          "internalType": "enum Certification.CertificationType",
          "name": "",
          "type": "uint8"
        }
      ],
      "name": "durations",
      "outputs": [
        {
          "internalType": "uint256",
          "name": "",
          "type": "uint256"
        }
      ],
      "stateMutability": "view",
      "type": "function",
      "constant": true
    },
    {
      "inputs": [
        {
          "internalType": "bytes32",
          "name": "role",
          "type": "bytes32"
        }
      ],
      "name": "getRoleAdmin",
      "outputs": [
        {
          "internalType": "bytes32",
          "name": "",
          "type": "bytes32"
        }
      ],
      "stateMutability": "view",
      "type": "function",
      "constant": true
    },
    {
      "inputs": [
        {
          "internalType": "address",
          "name": "to",
          "type": "address"
        }
      ],
      "name": "grantCertificationMinterRole",
      "outputs": [],
      "stateMutability": "nonpayable",
      "type": "function"
    },
    {
      "inputs": [
        {
          "internalType": "bytes32",
          "name": "role",
          "type": "bytes32"
        },
        {
          "internalType": "address",
          "name": "account",
          "type": "address"
        }
      ],
      "name": "grantRole",
      "outputs": [],
      "stateMutability": "nonpayable",
      "type": "function"
    },
    {
      "inputs": [
        {
          "internalType": "bytes32",
          "name": "role",
          "type": "bytes32"
        },
        {
          "internalType": "address",
          "name": "account",
          "type": "address"
        }
      ],
      "name": "hasRole",
      "outputs": [
        {
          "internalType": "bool",
          "name": "",
          "type": "bool"
        }
      ],
      "stateMutability": "view",
      "type": "function",
      "constant": true
    },
    {
      "inputs": [
        {
          "internalType": "bytes32",
          "name": "role",
          "type": "bytes32"
        },
        {
          "internalType": "address",
          "name": "account",
          "type": "address"
        }
      ],
      "name": "renounceRole",
      "outputs": [],
      "stateMutability": "nonpayable",
      "type": "function"
    },
    {
      "inputs": [
        {
          "internalType": "address",
          "name": "to",
          "type": "address"
        }
      ],
      "name": "revokeCertificationMinterRole",
      "outputs": [],
      "stateMutability": "nonpayable",
      "type": "function"
    },
    {
      "inputs": [
        {
          "internalType": "bytes32",
          "name": "role",
          "type": "bytes32"
        },
        {
          "internalType": "address",
          "name": "account",
          "type": "address"
        }
      ],
      "name": "revokeRole",
      "outputs": [],
      "stateMutability": "nonpayable",
      "type": "function"
    },
    {
      "inputs": [
        {
          "internalType": "bytes4",
          "name": "interfaceId",
          "type": "bytes4"
        }
      ],
      "name": "supportsInterface",
      "outputs": [
        {
          "internalType": "bool",
          "name": "",
          "type": "bool"
        }
      ],
      "stateMutability": "view",
      "type": "function",
      "constant": true
    },
    {
      "inputs": [
        {
          "internalType": "enum Certification.CertificationType",
          "name": "certificationType",
          "type": "uint8"
        },
        {
          "internalType": "string",
          "name": "qrcode",
          "type": "string"
        }
      ],
      "name": "emitCertification",
      "outputs": [],
      "stateMutability": "nonpayable",
      "type": "function"
    },
    {
      "inputs": [
        {
          "internalType": "string",
          "name": "qrcode",
          "type": "string"
        }
      ],
      "name": "isExpired",
      "outputs": [
        {
          "internalType": "bool",
          "name": "",
          "type": "bool"
        }
      ],
      "stateMutability": "view",
      "type": "function",
      "constant": true
    },
    {
      "inputs": [
        {
          "internalType": "string",
          "name": "qrcode",
          "type": "string"
        }
      ],
      "name": "invalidateCertificate",
      "outputs": [],
      "stateMutability": "nonpayable",
      "type": "function"
    },
    {
      "inputs": [
        {
          "internalType": "enum Region.Regions",
          "name": "region",
          "type": "uint8"
        },
        {
          "internalType": "enum Region.Colors",
          "name": "color",
          "type": "uint8"
        }
      ],
      "name": "setRegionColor",
      "outputs": [],
      "stateMutability": "nonpayable",
      "type": "function"
    },
    {
      "inputs": [
        {
          "internalType": "enum Certification.CertificationType",
          "name": "certificationType",
          "type": "uint8"
        },
        {
          "internalType": "enum Region.Colors",
          "name": "color",
          "type": "uint8"
        },
        {
          "internalType": "enum Activity.Activities",
          "name": "activity",
          "type": "uint8"
        }
      ],
      "name": "addRole",
      "outputs": [],
      "stateMutability": "nonpayable",
      "type": "function"
    },
    {
      "inputs": [
        {
          "internalType": "enum Certification.CertificationType",
          "name": "certificationType",
          "type": "uint8"
        },
        {
          "internalType": "enum Region.Colors",
          "name": "color",
          "type": "uint8"
        },
        {
          "internalType": "enum Activity.Activities",
          "name": "activity",
          "type": "uint8"
        }
      ],
      "name": "removeRole",
      "outputs": [],
      "stateMutability": "nonpayable",
      "type": "function"
    },
    {
      "inputs": [
        {
          "internalType": "string",
          "name": "qrcode",
          "type": "string"
        },
        {
          "internalType": "enum Activity.Activities",
          "name": "activity",
          "type": "uint8"
        },
        {
          "internalType": "enum Region.Regions",
          "name": "region",
          "type": "uint8"
        }
      ],
      "name": "canDo",
      "outputs": [
        {
          "internalType": "bool",
          "name": "",
          "type": "bool"
        }
      ],
      "stateMutability": "view",
      "type": "function",
      "constant": true
    }
  ],
  "bytecode": "0x60806040523480156200001157600080fd5b50620000447fa49807205ce4d355092ef5a8a18f56e8913cf4a201fbe287825b095693c217753362000a7860201b60201c565b6202a3006001600080600681111562000062576200006162000bf1565b5b600681111562000077576200007662000bf1565b5b8152602001908152602001600020819055506202a3006001600060016006811115620000a857620000a762000bf1565b5b6006811115620000bd57620000bc62000bf1565b5b8152602001908152602001600020819055506293a8006001600060026006811115620000ee57620000ed62000bf1565b5b600681111562000103576200010262000bf1565b5b8152602001908152602001600020819055506293a800600160006003600681111562000134576200013362000bf1565b5b600681111562000149576200014862000bf1565b5b8152602001908152602001600020819055506293a80060016000600460068111156200017a576200017962000bf1565b5b60068111156200018f576200018e62000bf1565b5b8152602001908152602001600020819055506293a8006001600060056006811115620001c057620001bf62000bf1565b5b6006811115620001d557620001d462000bf1565b5b8152602001908152602001600020819055506293a8006001600060068081111562000205576200020462000bf1565b5b60068111156200021a576200021962000bf1565b5b81526020019081526020016000208190555060006002600080601381111562000248576200024762000bf1565b5b60138111156200025d576200025c62000bf1565b5b815260200190815260200160002060006101000a81548160ff0219169083600281111562000290576200028f62000bf1565b5b021790555060006002600060016013811115620002b257620002b162000bf1565b5b6013811115620002c757620002c662000bf1565b5b815260200190815260200160002060006101000a81548160ff02191690836002811115620002fa57620002f962000bf1565b5b0217905550600060026000600260138111156200031c576200031b62000bf1565b5b601381111562000331576200033062000bf1565b5b815260200190815260200160002060006101000a81548160ff0219169083600281111562000364576200036362000bf1565b5b02179055506000600260006003601381111562000386576200038562000bf1565b5b60138111156200039b576200039a62000bf1565b5b815260200190815260200160002060006101000a81548160ff02191690836002811115620003ce57620003cd62000bf1565b5b021790555060006002600060046013811115620003f057620003ef62000bf1565b5b601381111562000405576200040462000bf1565b5b815260200190815260200160002060006101000a81548160ff0219169083600281111562000438576200043762000bf1565b5b0217905550600060026000600560138111156200045a576200045962000bf1565b5b60138111156200046f576200046e62000bf1565b5b815260200190815260200160002060006101000a81548160ff02191690836002811115620004a257620004a162000bf1565b5b021790555060006002600060066013811115620004c457620004c362000bf1565b5b6013811115620004d957620004d862000bf1565b5b815260200190815260200160002060006101000a81548160ff021916908360028111156200050c576200050b62000bf1565b5b0217905550600060026000600760138111156200052e576200052d62000bf1565b5b601381111562000543576200054262000bf1565b5b815260200190815260200160002060006101000a81548160ff0219169083600281111562000576576200057562000bf1565b5b02179055506000600260006008601381111562000598576200059762000bf1565b5b6013811115620005ad57620005ac62000bf1565b5b815260200190815260200160002060006101000a81548160ff02191690836002811115620005e057620005df62000bf1565b5b02179055506000600260006009601381111562000602576200060162000bf1565b5b601381111562000617576200061662000bf1565b5b815260200190815260200160002060006101000a81548160ff021916908360028111156200064a576200064962000bf1565b5b0217905550600060026000600a60138111156200066c576200066b62000bf1565b5b601381111562000681576200068062000bf1565b5b815260200190815260200160002060006101000a81548160ff02191690836002811115620006b457620006b362000bf1565b5b0217905550600060026000600b6013811115620006d657620006d562000bf1565b5b6013811115620006eb57620006ea62000bf1565b5b815260200190815260200160002060006101000a81548160ff021916908360028111156200071e576200071d62000bf1565b5b0217905550600060026000600c601381111562000740576200073f62000bf1565b5b601381111562000755576200075462000bf1565b5b815260200190815260200160002060006101000a81548160ff0219169083600281111562000788576200078762000bf1565b5b0217905550600060026000600d6013811115620007aa57620007a962000bf1565b5b6013811115620007bf57620007be62000bf1565b5b815260200190815260200160002060006101000a81548160ff02191690836002811115620007f257620007f162000bf1565b5b0217905550600060026000600e601381111562000814576200081362000bf1565b5b601381111562000829576200082862000bf1565b5b815260200190815260200160002060006101000a81548160ff021916908360028111156200085c576200085b62000bf1565b5b0217905550600060026000600f60138111156200087e576200087d62000bf1565b5b601381111562000893576200089262000bf1565b5b815260200190815260200160002060006101000a81548160ff02191690836002811115620008c657620008c562000bf1565b5b021790555060006002600060106013811115620008e857620008e762000bf1565b5b6013811115620008fd57620008fc62000bf1565b5b815260200190815260200160002060006101000a81548160ff0219169083600281111562000930576200092f62000bf1565b5b02179055506000600260006011601381111562000952576200095162000bf1565b5b601381111562000967576200096662000bf1565b5b815260200190815260200160002060006101000a81548160ff021916908360028111156200099a576200099962000bf1565b5b021790555060006002600060126013811115620009bc57620009bb62000bf1565b5b6013811115620009d157620009d062000bf1565b5b815260200190815260200160002060006101000a81548160ff0219169083600281111562000a045762000a0362000bf1565b5b021790555060006002600060138081111562000a255762000a2462000bf1565b5b601381111562000a3a5762000a3962000bf1565b5b815260200190815260200160002060006101000a81548160ff0219169083600281111562000a6d5762000a6c62000bf1565b5b021790555062000c20565b62000a8a828262000a8e60201b60201c565b5050565b62000aa0828262000b7f60201b60201c565b62000b7b57600160008084815260200190815260200160002060000160008373ffffffffffffffffffffffffffffffffffffffff1673ffffffffffffffffffffffffffffffffffffffff16815260200190815260200160002060006101000a81548160ff02191690831515021790555062000b2062000be960201b60201c565b73ffffffffffffffffffffffffffffffffffffffff168173ffffffffffffffffffffffffffffffffffffffff16837f2f8788117e7eff1d82e926ec794901d17c78024a50270940304540a733656f0d60405160405180910390a45b5050565b600080600084815260200190815260200160002060000160008373ffffffffffffffffffffffffffffffffffffffff1673ffffffffffffffffffffffffffffffffffffffff16815260200190815260200160002060009054906101000a900460ff16905092915050565b600033905090565b7f4e487b7100000000000000000000000000000000000000000000000000000000600052602160045260246000fd5b6125388062000c306000396000f3fe608060405234801561001057600080fd5b506004361061012c5760003560e01c80637317d8ab116100ad578063a217fddf11610071578063a217fddf1461033b578063c64fafbc14610359578063d547741f14610389578063dfb69cb2146103a5578063eec1eddd146103d55761012c565b80637317d8ab1461029957806375b238fc146102b55780637d5bfe44146102d35780638bbe97c2146102ef57806391d148541461030b5761012c565b80632f2ff15d116100f45780632f2ff15d1461020d57806336568abe1461022957806347201b84146102455780635e41256b1461026157806362281d8c1461027d5761012c565b806301ffc9a7146101315780630ae355d314610161578063248a9ca31461019157806324ea5214146101c157806324f349f9146101f1575b600080fd5b61014b600480360381019061014691906118ca565b6103f3565b6040516101589190611912565b60405180910390f35b61017b60048036038101906101769190611952565b61046d565b6040516101889190611998565b60405180910390f35b6101ab60048036038101906101a691906119e9565b610485565b6040516101b89190611a25565b60405180910390f35b6101db60048036038101906101d69190611bd0565b6104a4565b6040516101e89190611912565b60405180910390f35b61020b60048036038101906102069190611c3f565b610752565b005b61022760048036038101906102229190611ce6565b6107c2565b005b610243600480360381019061023e9190611ce6565b6107eb565b005b61025f600480360381019061025a9190611d4b565b61086e565b005b61027b60048036038101906102769190611d8b565b610904565b005b61029760048036038101906102929190611dde565b610a81565b005b6102b360048036038101906102ae9190611dde565b610ae1565b005b6102bd610b41565b6040516102ca9190611a25565b60405180910390f35b6102ed60048036038101906102e89190611d8b565b610b65565b005b61030960048036038101906103049190611e0b565b610c92565b005b61032560048036038101906103209190611ce6565b610e47565b6040516103329190611912565b60405180910390f35b610343610eb1565b6040516103509190611a25565b60405180910390f35b610373600480360381019061036e9190611c3f565b610eb8565b6040516103809190611912565b60405180910390f35b6103a3600480360381019061039e9190611ce6565b611056565b005b6103bf60048036038101906103ba9190611e67565b61107f565b6040516103cc9190611f0b565b60405180910390f35b6103dd61109f565b6040516103ea9190611a25565b60405180910390f35b60007f7965db0b000000000000000000000000000000000000000000000000000000007bffffffffffffffffffffffffffffffffffffffffffffffffffffffff1916827bffffffffffffffffffffffffffffffffffffffffffffffffffffffff191614806104665750610465826110c3565b5b9050919050565b60016020528060005260406000206000915090505481565b6000806000838152602001908152602001600020600101549050919050565b6000806003856040516104b79190611fa0565b90815260200160405180910390206040518060c00160405290816000820180546104e090611fe6565b80601f016020809104026020016040519081016040528092919081815260200182805461050c90611fe6565b80156105595780601f1061052e57610100808354040283529160200191610559565b820191906000526020600020905b81548152906001019060200180831161053c57829003601f168201915b505050505081526020016001820160009054906101000a900473ffffffffffffffffffffffffffffffffffffffff1673ffffffffffffffffffffffffffffffffffffffff1673ffffffffffffffffffffffffffffffffffffffff1681526020016001820160149054906101000a900460ff1660068111156105dd576105dc611e94565b5b60068111156105ef576105ee611e94565b5b815260200160028201548152602001600382015481526020016004820160009054906101000a900460ff161515151581525050905061062d85610eb8565b8061063957508060a001515b1561064857600091505061074b565b60006002600085601381111561066157610660611e94565b5b601381111561067357610672611e94565b5b815260200190815260200160002060009054906101000a900460ff16905060006040518060600160405280846040015160068111156106b5576106b4611e94565b5b81526020018360028111156106cd576106cc611e94565b5b815260200187600c8111156106e5576106e4611e94565b5b8152509050600081600001518260200151836040015160405160200161070d939291906120ee565b60405160208183030381529060405280519060200120905061073060058261112d565b1561074257600194505050505061074b565b60009450505050505b9392505050565b7f77057c9486c0c0b7bfbe402764b9bf817389ccf31bebf8010b4de82d246292896107848161077f611144565b61114c565b60016003836040516107969190611fa0565b908152602001604051809103902060040160006101000a81548160ff0219169083151502179055505050565b6107cb82610485565b6107dc816107d7611144565b61114c565b6107e683836111e9565b505050565b6107f3611144565b73ffffffffffffffffffffffffffffffffffffffff168173ffffffffffffffffffffffffffffffffffffffff1614610860576040517f08c379a0000000000000000000000000000000000000000000000000000000008152600401610857906121ae565b60405180910390fd5b61086a82826112c9565b5050565b7fa49807205ce4d355092ef5a8a18f56e8913cf4a201fbe287825b095693c217756108a08161089b611144565b61114c565b81600260008560138111156108b8576108b7611e94565b5b60138111156108ca576108c9611e94565b5b815260200190815260200160002060006101000a81548160ff021916908360028111156108fa576108f9611e94565b5b0217905550505050565b7fa49807205ce4d355092ef5a8a18f56e8913cf4a201fbe287825b095693c2177561093681610931611144565b61114c565b6000604051806060016040528086600681111561095657610955611e94565b5b815260200185600281111561096e5761096d611e94565b5b815260200184600c81111561098657610985611e94565b5b815250905060008160000151826020015183604001516040516020016109ae939291906120ee565b604051602081830303815290604052805190602001209050816004600083815260200190815260200160002060008201518160000160006101000a81548160ff02191690836006811115610a0557610a04611e94565b5b021790555060208201518160000160016101000a81548160ff02191690836002811115610a3557610a34611e94565b5b021790555060408201518160000160026101000a81548160ff0219169083600c811115610a6557610a64611e94565b5b0217905550905050610a786005826113aa565b50505050505050565b7fa49807205ce4d355092ef5a8a18f56e8913cf4a201fbe287825b095693c21775610ab381610aae611144565b61114c565b610add7f77057c9486c0c0b7bfbe402764b9bf817389ccf31bebf8010b4de82d24629289836111e9565b5050565b7fa49807205ce4d355092ef5a8a18f56e8913cf4a201fbe287825b095693c21775610b1381610b0e611144565b61114c565b610b3d7f77057c9486c0c0b7bfbe402764b9bf817389ccf31bebf8010b4de82d24629289836112c9565b5050565b7fa49807205ce4d355092ef5a8a18f56e8913cf4a201fbe287825b095693c2177581565b7fa49807205ce4d355092ef5a8a18f56e8913cf4a201fbe287825b095693c21775610b9781610b92611144565b61114c565b60006040518060600160405280866006811115610bb757610bb6611e94565b5b8152602001856002811115610bcf57610bce611e94565b5b815260200184600c811115610be757610be6611e94565b5b81525090506000816000015182602001518360400151604051602001610c0f939291906120ee565b604051602081830303815290604052805190602001209050610c326005826113c1565b15610c8a5760046000828152602001908152602001600020600080820160006101000a81549060ff02191690556000820160016101000a81549060ff02191690556000820160026101000a81549060ff021916905550505b505050505050565b7f77057c9486c0c0b7bfbe402764b9bf817389ccf31bebf8010b4de82d24629289610cc481610cbf611144565b61114c565b60006040518060c001604052808481526020013373ffffffffffffffffffffffffffffffffffffffff168152602001856006811115610d0657610d05611e94565b5b815260200142815260200160016000876006811115610d2857610d27611e94565b5b6006811115610d3a57610d39611e94565b5b815260200190815260200160002054815260200160001515815250905080600384604051610d689190611fa0565b90815260200160405180910390206000820151816000019080519060200190610d929291906117bb565b5060208201518160010160006101000a81548173ffffffffffffffffffffffffffffffffffffffff021916908373ffffffffffffffffffffffffffffffffffffffff16021790555060408201518160010160146101000a81548160ff02191690836006811115610e0557610e04611e94565b5b0217905550606082015181600201556080820151816003015560a08201518160040160006101000a81548160ff02191690831515021790555090505050505050565b600080600084815260200190815260200160002060000160008373ffffffffffffffffffffffffffffffffffffffff1673ffffffffffffffffffffffffffffffffffffffff16815260200190815260200160002060009054906101000a900460ff16905092915050565b6000801b81565b600080600383604051610ecb9190611fa0565b90815260200160405180910390206040518060c0016040529081600082018054610ef490611fe6565b80601f0160208091040260200160405190810160405280929190818152602001828054610f2090611fe6565b8015610f6d5780601f10610f4257610100808354040283529160200191610f6d565b820191906000526020600020905b815481529060010190602001808311610f5057829003601f168201915b505050505081526020016001820160009054906101000a900473ffffffffffffffffffffffffffffffffffffffff1673ffffffffffffffffffffffffffffffffffffffff1673ffffffffffffffffffffffffffffffffffffffff1681526020016001820160149054906101000a900460ff166006811115610ff157610ff0611e94565b5b600681111561100357611002611e94565b5b815260200160028201548152602001600382015481526020016004820160009054906101000a900460ff16151515158152505090508060800151816060015161104c91906121fd565b4211915050919050565b61105f82610485565b6110708161106b611144565b61114c565b61107a83836112c9565b505050565b60026020528060005260406000206000915054906101000a900460ff1681565b7f77057c9486c0c0b7bfbe402764b9bf817389ccf31bebf8010b4de82d2462928981565b60007f01ffc9a7000000000000000000000000000000000000000000000000000000007bffffffffffffffffffffffffffffffffffffffffffffffffffffffff1916827bffffffffffffffffffffffffffffffffffffffffffffffffffffffff1916149050919050565b600061113c83600001836113d8565b905092915050565b600033905090565b6111568282610e47565b6111e55761117b8173ffffffffffffffffffffffffffffffffffffffff1660146113fb565b6111898360001c60206113fb565b60405160200161119a9291906122eb565b6040516020818303038152906040526040517f08c379a00000000000000000000000000000000000000000000000000000000081526004016111dc919061235e565b60405180910390fd5b5050565b6111f38282610e47565b6112c557600160008084815260200190815260200160002060000160008373ffffffffffffffffffffffffffffffffffffffff1673ffffffffffffffffffffffffffffffffffffffff16815260200190815260200160002060006101000a81548160ff02191690831515021790555061126a611144565b73ffffffffffffffffffffffffffffffffffffffff168173ffffffffffffffffffffffffffffffffffffffff16837f2f8788117e7eff1d82e926ec794901d17c78024a50270940304540a733656f0d60405160405180910390a45b5050565b6112d38282610e47565b156113a657600080600084815260200190815260200160002060000160008373ffffffffffffffffffffffffffffffffffffffff1673ffffffffffffffffffffffffffffffffffffffff16815260200190815260200160002060006101000a81548160ff02191690831515021790555061134b611144565b73ffffffffffffffffffffffffffffffffffffffff168173ffffffffffffffffffffffffffffffffffffffff16837ff6391f5c32d9c69d2a47ea670b442974b53935d1edc7fd64eb21e047a839171b60405160405180910390a45b5050565b60006113b98360000183611637565b905092915050565b60006113d083600001836116a7565b905092915050565b600080836001016000848152602001908152602001600020541415905092915050565b60606000600283600261140e9190612380565b61141891906121fd565b67ffffffffffffffff81111561143157611430611a5b565b5b6040519080825280601f01601f1916602001820160405280156114635781602001600182028036833780820191505090505b5090507f30000000000000000000000000000000000000000000000000000000000000008160008151811061149b5761149a6123da565b5b60200101907effffffffffffffffffffffffffffffffffffffffffffffffffffffffffffff1916908160001a9053507f7800000000000000000000000000000000000000000000000000000000000000816001815181106114ff576114fe6123da565b5b60200101907effffffffffffffffffffffffffffffffffffffffffffffffffffffffffffff1916908160001a9053506000600184600261153f9190612380565b61154991906121fd565b90505b60018111156115e9577f3031323334353637383961626364656600000000000000000000000000000000600f86166010811061158b5761158a6123da565b5b1a60f81b8282815181106115a2576115a16123da565b5b60200101907effffffffffffffffffffffffffffffffffffffffffffffffffffffffffffff1916908160001a905350600485901c9450806115e290612409565b905061154c565b506000841461162d576040517f08c379a00000000000000000000000000000000000000000000000000000000081526004016116249061247f565b60405180910390fd5b8091505092915050565b600061164383836113d8565b61169c5782600001829080600181540180825580915050600190039060005260206000200160009091909190915055826000018054905083600101600084815260200190815260200160002081905550600190506116a1565b600090505b92915050565b600080836001016000848152602001908152602001600020549050600081146117af5760006001826116d9919061249f565b90506000600186600001805490506116f1919061249f565b9050818114611760576000866000018281548110611712576117116123da565b5b9060005260206000200154905080876000018481548110611736576117356123da565b5b90600052602060002001819055508387600101600083815260200190815260200160002081905550505b85600001805480611774576117736124d3565b5b6001900381819060005260206000200160009055905585600101600086815260200190815260200160002060009055600193505050506117b5565b60009150505b92915050565b8280546117c790611fe6565b90600052602060002090601f0160209004810192826117e95760008555611830565b82601f1061180257805160ff1916838001178555611830565b82800160010185558215611830579182015b8281111561182f578251825591602001919060010190611814565b5b50905061183d9190611841565b5090565b5b8082111561185a576000816000905550600101611842565b5090565b6000604051905090565b600080fd5b600080fd5b60007fffffffff0000000000000000000000000000000000000000000000000000000082169050919050565b6118a781611872565b81146118b257600080fd5b50565b6000813590506118c48161189e565b92915050565b6000602082840312156118e0576118df611868565b5b60006118ee848285016118b5565b91505092915050565b60008115159050919050565b61190c816118f7565b82525050565b60006020820190506119276000830184611903565b92915050565b6007811061193a57600080fd5b50565b60008135905061194c8161192d565b92915050565b60006020828403121561196857611967611868565b5b60006119768482850161193d565b91505092915050565b6000819050919050565b6119928161197f565b82525050565b60006020820190506119ad6000830184611989565b92915050565b6000819050919050565b6119c6816119b3565b81146119d157600080fd5b50565b6000813590506119e3816119bd565b92915050565b6000602082840312156119ff576119fe611868565b5b6000611a0d848285016119d4565b91505092915050565b611a1f816119b3565b82525050565b6000602082019050611a3a6000830184611a16565b92915050565b600080fd5b600080fd5b6000601f19601f8301169050919050565b7f4e487b7100000000000000000000000000000000000000000000000000000000600052604160045260246000fd5b611a9382611a4a565b810181811067ffffffffffffffff82111715611ab257611ab1611a5b565b5b80604052505050565b6000611ac561185e565b9050611ad18282611a8a565b919050565b600067ffffffffffffffff821115611af157611af0611a5b565b5b611afa82611a4a565b9050602081019050919050565b82818337600083830152505050565b6000611b29611b2484611ad6565b611abb565b905082815260208101848484011115611b4557611b44611a45565b5b611b50848285611b07565b509392505050565b600082601f830112611b6d57611b6c611a40565b5b8135611b7d848260208601611b16565b91505092915050565b600d8110611b9357600080fd5b50565b600081359050611ba581611b86565b92915050565b60148110611bb857600080fd5b50565b600081359050611bca81611bab565b92915050565b600080600060608486031215611be957611be8611868565b5b600084013567ffffffffffffffff811115611c0757611c0661186d565b5b611c1386828701611b58565b9350506020611c2486828701611b96565b9250506040611c3586828701611bbb565b9150509250925092565b600060208284031215611c5557611c54611868565b5b600082013567ffffffffffffffff811115611c7357611c7261186d565b5b611c7f84828501611b58565b91505092915050565b600073ffffffffffffffffffffffffffffffffffffffff82169050919050565b6000611cb382611c88565b9050919050565b611cc381611ca8565b8114611cce57600080fd5b50565b600081359050611ce081611cba565b92915050565b60008060408385031215611cfd57611cfc611868565b5b6000611d0b858286016119d4565b9250506020611d1c85828601611cd1565b9150509250929050565b60038110611d3357600080fd5b50565b600081359050611d4581611d26565b92915050565b60008060408385031215611d6257611d61611868565b5b6000611d7085828601611bbb565b9250506020611d8185828601611d36565b9150509250929050565b600080600060608486031215611da457611da3611868565b5b6000611db28682870161193d565b9350506020611dc386828701611d36565b9250506040611dd486828701611b96565b9150509250925092565b600060208284031215611df457611df3611868565b5b6000611e0284828501611cd1565b91505092915050565b60008060408385031215611e2257611e21611868565b5b6000611e308582860161193d565b925050602083013567ffffffffffffffff811115611e5157611e5061186d565b5b611e5d85828601611b58565b9150509250929050565b600060208284031215611e7d57611e7c611868565b5b6000611e8b84828501611bbb565b91505092915050565b7f4e487b7100000000000000000000000000000000000000000000000000000000600052602160045260246000fd5b60038110611ed457611ed3611e94565b5b50565b6000819050611ee582611ec3565b919050565b6000611ef582611ed7565b9050919050565b611f0581611eea565b82525050565b6000602082019050611f206000830184611efc565b92915050565b600081519050919050565b600081905092915050565b60005b83811015611f5a578082015181840152602081019050611f3f565b83811115611f69576000848401525b50505050565b6000611f7a82611f26565b611f848185611f31565b9350611f94818560208601611f3c565b80840191505092915050565b6000611fac8284611f6f565b915081905092915050565b7f4e487b7100000000000000000000000000000000000000000000000000000000600052602260045260246000fd5b60006002820490506001821680611ffe57607f821691505b6020821081141561201257612011611fb7565b5b50919050565b6007811061202957612028611e94565b5b50565b600081905061203a82612018565b919050565b600061204a8261202c565b9050919050565b60008160f81b9050919050565b600061206982612051565b9050919050565b61208161207c8261203f565b61205e565b82525050565b61209861209382611eea565b61205e565b82525050565b600d81106120af576120ae611e94565b5b50565b60008190506120c08261209e565b919050565b60006120d0826120b2565b9050919050565b6120e86120e3826120c5565b61205e565b82525050565b60006120fa8286612070565b60018201915061210a8285612087565b60018201915061211a82846120d7565b600182019150819050949350505050565b600082825260208201905092915050565b7f416363657373436f6e74726f6c3a2063616e206f6e6c792072656e6f756e636560008201527f20726f6c657320666f722073656c660000000000000000000000000000000000602082015250565b6000612198602f8361212b565b91506121a38261213c565b604082019050919050565b600060208201905081810360008301526121c78161218b565b9050919050565b7f4e487b7100000000000000000000000000000000000000000000000000000000600052601160045260246000fd5b60006122088261197f565b91506122138361197f565b9250827fffffffffffffffffffffffffffffffffffffffffffffffffffffffffffffffff03821115612248576122476121ce565b5b828201905092915050565b7f416363657373436f6e74726f6c3a206163636f756e7420000000000000000000600082015250565b6000612289601783611f31565b915061229482612253565b601782019050919050565b7f206973206d697373696e6720726f6c6520000000000000000000000000000000600082015250565b60006122d5601183611f31565b91506122e08261229f565b601182019050919050565b60006122f68261227c565b91506123028285611f6f565b915061230d826122c8565b91506123198284611f6f565b91508190509392505050565b600061233082611f26565b61233a818561212b565b935061234a818560208601611f3c565b61235381611a4a565b840191505092915050565b600060208201905081810360008301526123788184612325565b905092915050565b600061238b8261197f565b91506123968361197f565b9250817fffffffffffffffffffffffffffffffffffffffffffffffffffffffffffffffff04831182151516156123cf576123ce6121ce565b5b828202905092915050565b7f4e487b7100000000000000000000000000000000000000000000000000000000600052603260045260246000fd5b60006124148261197f565b91506000821415612428576124276121ce565b5b600182039050919050565b7f537472696e67733a20686578206c656e67746820696e73756666696369656e74600082015250565b600061246960208361212b565b915061247482612433565b602082019050919050565b600060208201905081810360008301526124988161245c565b9050919050565b60006124aa8261197f565b91506124b58361197f565b9250828210156124c8576124c76121ce565b5b828203905092915050565b7f4e487b7100000000000000000000000000000000000000000000000000000000600052603160045260246000fdfea2646970667358221220cd25ac66dfbb7c96d4e2e6be3d440f5b1651d32f698757a6e80f9cabd014876b64736f6c63430008090033",
  "immutableReferences": {},
  "source": "// SPDX-License-Identifier: MIT\npragma solidity >=0.4.22 <0.9.0;\n\nimport \"@openzeppelin/contracts/utils/structs/EnumerableSet.sol\";\nimport './RolesManager.sol';\nimport './Certification.sol';\nimport './Region.sol';\nimport './Activity.sol';\n\n/**\n * @title GreenPassCertification contract\n * @author Alessandro Straziota, Michele Cirillo\n * @notice Contratto che offre strumenti utili per la verifica della validit dei green pass rispetto a determinate attivit.\n * @dev Contratto che offre strumenti utili per la verifica della validit dei green pass rispetto a determinate attivit.\n */\ncontract GreenPassCertification is RolesManager, Certification, Region, Activity {\n\n  /**\n   * @dev mappa `QRCODE` => `GreenPass`\n   */\n  mapping (string => GreenPass) private certificates;\n  \n  /**\n   * @dev Funzione che genera un certificato di tipo `certificationType` e lo assoccia al suo identificatore `qrcode`.\n   * La transazione va a buon fine solo se colui che invoca il metodo `msg.sender` ha il ruolo `CERTIFICATION_MINTER_ROLE`.\n   * @param certificationType il tipo del certificato rilasciato\n   * @param qrcode il codice qr del certificato\n   */\n  function emitCertification(CertificationType certificationType, string memory qrcode) public onlyRole(CERTIFICATION_MINTER_ROLE) {\n    //require(hasRole(CERTIFICATION_MINTER_ROLE, msg.sender), \"ONLY AUTHORIZED ENTITIES CAN CREATE A NEW CERTIFICATION\");\n\n    GreenPass memory certificate = GreenPass(\n        qrcode,                       // qrcode\n        msg.sender,                   // emitter\n        certificationType,            // certificationType\n        block.timestamp,              // creation\n        durations[certificationType], // duration\n        false                         // invalidated\n    );\n    certificates[qrcode] = certificate;\n  }\n\n  /**\n   * @dev Funzione che dato il QR-code di un green pass ritorna `true` se  scaduto, `false` altrimenti.\n   * @param qrcode il QR-code presente su un green pass\n   * @return       isExpired\n   */\n  function isExpired(string memory qrcode) public view returns (bool) {\n    GreenPass memory certificate = certificates[qrcode];\n    return block.timestamp > certificate.creation + certificate.duration;\n  }\n\n  /**\n   * @dev Funzione che dato il QR-code di un green pass lo invalida.\n   * Solo un indirizzo con ruolo `CERTIFICATION_MINTER_ROLE` pu invocare questa funzione.\n   */\n  function invalidateCertificate(string memory qrcode) public onlyRole(CERTIFICATION_MINTER_ROLE) {\n    //require(hasRole(CERTIFICATION_MINTER_ROLE, msg.sender), \"ONLY AUTHORIZED ENTITIES CAN INVALIDATE A CERTIFICATION\");\n    certificates[qrcode].invalidated = true;\n  }\n\n  /// *********\n\n  /**\n   * @dev Funzione che assegna il colore `color` alla regione `region`.\n   * Solo un indirizzo con ruolo `ADMIN_ROLE` pu invocare questa funzione.\n   */\n  function setRegionColor(Regions region, Colors color) public onlyRole(ADMIN_ROLE) {\n    colors[region] = color;\n  }\n\n  /// *********\n  /// RULES\n  using EnumerableSet for EnumerableSet.Bytes32Set;\n  \n  /**\n   * @dev struct che definisce una regola `Rule`.\n   * Per regola si intende un insieme composto da:\n   *  - un tipo di certificato `certificationType:CertificationType`\n   *  - un colore di regione `colro:Colors`\n   *  - un'attivit `activity:Activities`\n   * Se una regola `R`  presente nell'insieme delle regole valide, allora un utente\n   * avente il green pass di tipo `R.certificationType` potr svolgere l'attivit `R.activity`\n   * in una regione colorata del colore `R.color`.\n   */\n  struct Rule {\n    CertificationType certificationType;\n    Colors color;\n    Activities activity;\n  }\n\n  /**\n   * Se una regola `R`  presente nell'insieme delle regole valide, allora un utente\n   * avente il green pass di tipo `R.certificationType` potr svolgere l'attivit `R.activity`\n   * in una regione colorata del colore `R.color`.\n   */\n  mapping (bytes32 => Rule) private _rules;\n  EnumerableSet.Bytes32Set private _rulesSet;\n\n  /**\n   * @dev funzione che aggiunge una nuova regola all'insieme di regole valide.\n   * Solo un indirizzo con ruolo `ADMIN_ROLE` pu invocare questa funzione.\n   * @param certificationType il tipo della certificazione.\n   * @param color il colore della regione.\n   * @param activity l'attivit in questione.\n   */\n  function addRole(CertificationType certificationType, Colors color, Activities activity) public onlyRole(ADMIN_ROLE) {\n    Rule memory role = Rule(certificationType, color, activity);\n    bytes32 key = keccak256( abi.encodePacked(role.certificationType, role.color, role.activity) );\n    _rules[key] = role;\n    EnumerableSet.add(_rulesSet, key);\n  }\n\n  /**\n   * @dev funzione che rimuove una regola all'insieme di regole valide.\n   * Solo un indirizzo con ruolo `ADMIN_ROLE` pu invocare questa funzione.\n   * @param certificationType il tipo della certificazione.\n   * @param color il colore della regione.\n   * @param activity l'attivit in questione.\n   */\n  function removeRole(CertificationType certificationType, Colors color, Activities activity) public onlyRole(ADMIN_ROLE) {\n    Rule memory role = Rule(certificationType, color, activity);\n    bytes32 key = keccak256( abi.encodePacked(role.certificationType, role.color, role.activity) );\n    if( EnumerableSet.remove(_rulesSet, key) ) {\n      delete _rules[key];\n    }\n  }\n\n  /// *********\n  /// QUERY\n\n  /**\n   * @dev funzione che dato un codice QR relativo a un greenpass ritorna `true` se  consentito\n   * effettuare una data attivit `activity` in una data regione `region`.\n   * @param qrcode il qrcode di un greenpass.\n   * @param activity l'attivit che si desidera svolgare.\n   * @param region la regione in cui si desidera svolgere l'attivit.\n   * @return `true` se  consentito svolgere tale attivit, `false` altrimenti.\n   */\n  function canDo(string memory qrcode, Activities activity, Regions region) public view returns (bool) {\n    GreenPass memory greenPass = certificates[qrcode]; // verificare che succede se non esiste il green pass in questione.\n    if (isExpired(qrcode) || greenPass.invalidated) {\n      return false;\n    }\n    \n    Colors regionColors = colors[region];\n    Rule memory role = Rule(greenPass.certificationType, regionColors, activity);\n    bytes32 key = keccak256( abi.encodePacked(role.certificationType, role.color, role.activity) );\n    \n    if ( EnumerableSet.contains(_rulesSet, key) ) return true;\n    else return false; \n  }\n\n}",
  "sourcePath": "/home/alessandro/SDC/progetto-SDC/contracts/GreenPassCertification.sol",
  "compiler": {
    "name": "solc",
    "version": "0.8.9+commit.e5eed63a.Emscripten.clang"
  },
  "schemaVersion": "3.4.3",
  "updatedAt": "2022-02-01T00:20:36.576Z",
  "networkType": "ethereum",
  "devdoc": {
    "author": "Alessandro Straziota, Michele Cirillo",
    "details": "Contratto che offre strumenti utili per la verifica della validit dei green pass rispetto a determinate attivit.",
    "kind": "dev",
    "methods": {
      "addRole(uint8,uint8,uint8)": {
        "details": "funzione che aggiunge una nuova regola all'insieme di regole valide. Solo un indirizzo con ruolo `ADMIN_ROLE` pu invocare questa funzione.",
        "params": {
          "activity": "l'attivit in questione.",
          "certificationType": "il tipo della certificazione.",
          "color": "il colore della regione."
        }
      },
      "canDo(string,uint8,uint8)": {
        "details": "funzione che dato un codice QR relativo a un greenpass ritorna `true` se  consentito effettuare una data attivit `activity` in una data regione `region`.",
        "params": {
          "activity": "l'attivit che si desidera svolgare.",
          "qrcode": "il qrcode di un greenpass.",
          "region": "la regione in cui si desidera svolgere l'attivit."
        },
        "returns": {
          "_0": "`true` se  consentito svolgere tale attivit, `false` altrimenti."
        }
      },
      "emitCertification(uint8,string)": {
        "details": "Funzione che genera un certificato di tipo `certificationType` e lo assoccia al suo identificatore `qrcode`. La transazione va a buon fine solo se colui che invoca il metodo `msg.sender` ha il ruolo `CERTIFICATION_MINTER_ROLE`.",
        "params": {
          "certificationType": "il tipo del certificato rilasciato",
          "qrcode": "il codice qr del certificato"
        }
      },
      "getRoleAdmin(bytes32)": {
        "details": "Returns the admin role that controls `role`. See {grantRole} and {revokeRole}. To change a role's admin, use {_setRoleAdmin}."
      },
      "grantCertificationMinterRole(address)": {
        "details": "funzione che assegna il ruolo `CERTIFICATION_MINTER_ROLE` che consente ad un indirizzo di generare nuovi certificati. Questo metodo pu essere invocato solamente dagli indirizzi con il ruolo `ADMIN_ROLE`.",
        "params": {
          "to": "indirizzo a cui assegnare ruolo `CERTIFICATION_MINTER_ROLE`."
        }
      },
      "grantRole(bytes32,address)": {
        "details": "Grants `role` to `account`. If `account` had not been already granted `role`, emits a {RoleGranted} event. Requirements: - the caller must have ``role``'s admin role."
      },
      "hasRole(bytes32,address)": {
        "details": "Returns `true` if `account` has been granted `role`."
      },
      "invalidateCertificate(string)": {
        "details": "Funzione che dato il QR-code di un green pass lo invalida. Solo un indirizzo con ruolo `CERTIFICATION_MINTER_ROLE` pu invocare questa funzione."
      },
      "isExpired(string)": {
        "details": "Funzione che dato il QR-code di un green pass ritorna `true` se  scaduto, `false` altrimenti.",
        "params": {
          "qrcode": "il QR-code presente su un green pass"
        },
        "returns": {
          "_0": "isExpired"
        }
      },
      "removeRole(uint8,uint8,uint8)": {
        "details": "funzione che rimuove una regola all'insieme di regole valide. Solo un indirizzo con ruolo `ADMIN_ROLE` pu invocare questa funzione.",
        "params": {
          "activity": "l'attivit in questione.",
          "certificationType": "il tipo della certificazione.",
          "color": "il colore della regione."
        }
      },
      "renounceRole(bytes32,address)": {
        "details": "Revokes `role` from the calling account. Roles are often managed via {grantRole} and {revokeRole}: this function's purpose is to provide a mechanism for accounts to lose their privileges if they are compromised (such as when a trusted device is misplaced). If the calling account had been revoked `role`, emits a {RoleRevoked} event. Requirements: - the caller must be `account`."
      },
      "revokeCertificationMinterRole(address)": {
        "details": "funzione che revoca il ruolo `CERTIFICATION_MINTER_ROLE` ad un indirizzo. Questo metodo pu essere invocato solamente dagli indirizzi con il ruolo `ADMIN_ROLE`. See {grantCertificationMinterRole}.",
        "params": {
          "to": "indirizzo a cui assegnare ruolo `CERTIFICATION_MINTER_ROLE`."
        }
      },
      "revokeRole(bytes32,address)": {
        "details": "Revokes `role` from `account`. If `account` had been granted `role`, emits a {RoleRevoked} event. Requirements: - the caller must have ``role``'s admin role."
      },
      "setRegionColor(uint8,uint8)": {
        "details": "Funzione che assegna il colore `color` alla regione `region`. Solo un indirizzo con ruolo `ADMIN_ROLE` pu invocare questa funzione."
      },
      "supportsInterface(bytes4)": {
        "details": "See {IERC165-supportsInterface}."
      }
    },
    "stateVariables": {
      "certificates": {
        "details": "mappa `QRCODE` => `GreenPass`"
      }
    },
    "title": "GreenPassCertification contract",
    "version": 1
  },
  "userdoc": {
    "kind": "user",
    "methods": {},
    "notice": "Contratto che offre strumenti utili per la verifica della validit dei green pass rispetto a determinate attivit.",
    "version": 1
  }
}