{
  "contractName": "GreenPassCertification",
  "abi": [
    {
      "anonymous": false,
      "inputs": [
        {
          "indexed": true,
          "internalType": "bytes32",
          "name": "role",
          "type": "bytes32"
        },
        {
          "indexed": true,
          "internalType": "bytes32",
          "name": "previousAdminRole",
          "type": "bytes32"
        },
        {
          "indexed": true,
          "internalType": "bytes32",
          "name": "newAdminRole",
          "type": "bytes32"
        }
      ],
      "name": "RoleAdminChanged",
      "type": "event"
    },
    {
      "anonymous": false,
      "inputs": [
        {
          "indexed": true,
          "internalType": "bytes32",
          "name": "role",
          "type": "bytes32"
        },
        {
          "indexed": true,
          "internalType": "address",
          "name": "account",
          "type": "address"
        },
        {
          "indexed": true,
          "internalType": "address",
          "name": "sender",
          "type": "address"
        }
      ],
      "name": "RoleGranted",
      "type": "event"
    },
    {
      "anonymous": false,
      "inputs": [
        {
          "indexed": true,
          "internalType": "bytes32",
          "name": "role",
          "type": "bytes32"
        },
        {
          "indexed": true,
          "internalType": "address",
          "name": "account",
          "type": "address"
        },
        {
          "indexed": true,
          "internalType": "address",
          "name": "sender",
          "type": "address"
        }
      ],
      "name": "RoleRevoked",
      "type": "event"
    },
    {
      "inputs": [],
      "name": "ADMIN_ROLE",
      "outputs": [
        {
          "internalType": "bytes32",
          "name": "",
          "type": "bytes32"
        }
      ],
      "stateMutability": "view",
      "type": "function",
      "constant": true
    },
    {
      "inputs": [],
      "name": "CERTIFICATION_MINTER_ROLE",
      "outputs": [
        {
          "internalType": "bytes32",
          "name": "",
          "type": "bytes32"
        }
      ],
      "stateMutability": "view",
      "type": "function",
      "constant": true
    },
    {
      "inputs": [],
      "name": "DEFAULT_ADMIN_ROLE",
      "outputs": [
        {
          "internalType": "bytes32",
          "name": "",
          "type": "bytes32"
        }
      ],
      "stateMutability": "view",
      "type": "function",
      "constant": true
    },
    {
      "inputs": [
        {
          "internalType": "enum Certification.CertificationType",
          "name": "",
          "type": "uint8"
        }
      ],
      "name": "durations",
      "outputs": [
        {
          "internalType": "uint256",
          "name": "",
          "type": "uint256"
        }
      ],
      "stateMutability": "view",
      "type": "function",
      "constant": true
    },
    {
      "inputs": [
        {
          "internalType": "bytes32",
          "name": "role",
          "type": "bytes32"
        }
      ],
      "name": "getRoleAdmin",
      "outputs": [
        {
          "internalType": "bytes32",
          "name": "",
          "type": "bytes32"
        }
      ],
      "stateMutability": "view",
      "type": "function",
      "constant": true
    },
    {
      "inputs": [
        {
          "internalType": "address",
          "name": "to",
          "type": "address"
        }
      ],
      "name": "grantCertificationMinterRole",
      "outputs": [],
      "stateMutability": "nonpayable",
      "type": "function"
    },
    {
      "inputs": [
        {
          "internalType": "bytes32",
          "name": "role",
          "type": "bytes32"
        },
        {
          "internalType": "address",
          "name": "account",
          "type": "address"
        }
      ],
      "name": "grantRole",
      "outputs": [],
      "stateMutability": "nonpayable",
      "type": "function"
    },
    {
      "inputs": [
        {
          "internalType": "bytes32",
          "name": "role",
          "type": "bytes32"
        },
        {
          "internalType": "address",
          "name": "account",
          "type": "address"
        }
      ],
      "name": "hasRole",
      "outputs": [
        {
          "internalType": "bool",
          "name": "",
          "type": "bool"
        }
      ],
      "stateMutability": "view",
      "type": "function",
      "constant": true
    },
    {
      "inputs": [
        {
          "internalType": "bytes32",
          "name": "role",
          "type": "bytes32"
        },
        {
          "internalType": "address",
          "name": "account",
          "type": "address"
        }
      ],
      "name": "renounceRole",
      "outputs": [],
      "stateMutability": "nonpayable",
      "type": "function"
    },
    {
      "inputs": [
        {
          "internalType": "address",
          "name": "to",
          "type": "address"
        }
      ],
      "name": "revokeCertificationMinterRole",
      "outputs": [],
      "stateMutability": "nonpayable",
      "type": "function"
    },
    {
      "inputs": [
        {
          "internalType": "bytes32",
          "name": "role",
          "type": "bytes32"
        },
        {
          "internalType": "address",
          "name": "account",
          "type": "address"
        }
      ],
      "name": "revokeRole",
      "outputs": [],
      "stateMutability": "nonpayable",
      "type": "function"
    },
    {
      "inputs": [
        {
          "internalType": "bytes4",
          "name": "interfaceId",
          "type": "bytes4"
        }
      ],
      "name": "supportsInterface",
      "outputs": [
        {
          "internalType": "bool",
          "name": "",
          "type": "bool"
        }
      ],
      "stateMutability": "view",
      "type": "function",
      "constant": true
    },
    {
      "inputs": [
        {
          "internalType": "enum Certification.CertificationType",
          "name": "certificationType",
          "type": "uint8"
        },
        {
          "internalType": "string",
          "name": "qrcode",
          "type": "string"
        }
      ],
      "name": "emitCertification",
      "outputs": [],
      "stateMutability": "nonpayable",
      "type": "function"
    },
    {
      "inputs": [
        {
          "internalType": "string",
          "name": "qrcode",
          "type": "string"
        }
      ],
      "name": "isExpired",
      "outputs": [
        {
          "internalType": "bool",
          "name": "",
          "type": "bool"
        }
      ],
      "stateMutability": "view",
      "type": "function",
      "constant": true
    },
    {
      "inputs": [
        {
          "internalType": "string",
          "name": "qrcode",
          "type": "string"
        }
      ],
      "name": "invalidateCertificate",
      "outputs": [],
      "stateMutability": "nonpayable",
      "type": "function"
    }
  ],
  "bytecode": "0x60806040523480156200001157600080fd5b50620000447fa49807205ce4d355092ef5a8a18f56e8913cf4a201fbe287825b095693c21775336200023260201b60201c565b6202a30060016000806006811115620000625762000061620003ab565b5b6006811115620000775762000076620003ab565b5b8152602001908152602001600020819055506202a3006001600060016006811115620000a857620000a7620003ab565b5b6006811115620000bd57620000bc620003ab565b5b8152602001908152602001600020819055506293a8006001600060026006811115620000ee57620000ed620003ab565b5b6006811115620001035762000102620003ab565b5b8152602001908152602001600020819055506293a8006001600060036006811115620001345762000133620003ab565b5b6006811115620001495762000148620003ab565b5b8152602001908152602001600020819055506293a80060016000600460068111156200017a5762000179620003ab565b5b60068111156200018f576200018e620003ab565b5b8152602001908152602001600020819055506293a8006001600060056006811115620001c057620001bf620003ab565b5b6006811115620001d557620001d4620003ab565b5b8152602001908152602001600020819055506293a80060016000600680811115620002055762000204620003ab565b5b60068111156200021a5762000219620003ab565b5b815260200190815260200160002081905550620003da565b6200024482826200024860201b60201c565b5050565b6200025a82826200033960201b60201c565b6200033557600160008084815260200190815260200160002060000160008373ffffffffffffffffffffffffffffffffffffffff1673ffffffffffffffffffffffffffffffffffffffff16815260200190815260200160002060006101000a81548160ff021916908315150217905550620002da620003a360201b60201c565b73ffffffffffffffffffffffffffffffffffffffff168173ffffffffffffffffffffffffffffffffffffffff16837f2f8788117e7eff1d82e926ec794901d17c78024a50270940304540a733656f0d60405160405180910390a45b5050565b600080600084815260200190815260200160002060000160008373ffffffffffffffffffffffffffffffffffffffff1673ffffffffffffffffffffffffffffffffffffffff16815260200190815260200160002060009054906101000a900460ff16905092915050565b600033905090565b7f4e487b7100000000000000000000000000000000000000000000000000000000600052602160045260246000fd5b611b3480620003ea6000396000f3fe608060405234801561001057600080fd5b50600436106100f55760003560e01c80637317d8ab11610097578063a217fddf11610066578063a217fddf14610280578063c64fafbc1461029e578063d547741f146102ce578063eec1eddd146102ea576100f5565b80637317d8ab146101fa57806375b238fc146102165780638bbe97c21461023457806391d1485414610250576100f5565b806324f349f9116100d357806324f349f91461018a5780632f2ff15d146101a657806336568abe146101c257806362281d8c146101de576100f5565b806301ffc9a7146100fa5780630ae355d31461012a578063248a9ca31461015a575b600080fd5b610114600480360381019061010f9190611087565b610308565b60405161012191906110cf565b60405180910390f35b610144600480360381019061013f919061110f565b610382565b6040516101519190611155565b60405180910390f35b610174600480360381019061016f91906111a6565b61039a565b60405161018191906111e2565b60405180910390f35b6101a4600480360381019061019f9190611343565b6103b9565b005b6101c060048036038101906101bb91906113ea565b61045f565b005b6101dc60048036038101906101d791906113ea565b610488565b005b6101f860048036038101906101f3919061142a565b61050b565b005b610214600480360381019061020f919061142a565b6105a1565b005b61021e610601565b60405161022b91906111e2565b60405180910390f35b61024e60048036038101906102499190611457565b610625565b005b61026a600480360381019061026591906113ea565b610810565b60405161027791906110cf565b60405180910390f35b61028861087a565b60405161029591906111e2565b60405180910390f35b6102b860048036038101906102b39190611343565b610881565b6040516102c591906110cf565b60405180910390f35b6102e860048036038101906102e391906113ea565b610a1f565b005b6102f2610a48565b6040516102ff91906111e2565b60405180910390f35b60007f7965db0b000000000000000000000000000000000000000000000000000000007bffffffffffffffffffffffffffffffffffffffffffffffffffffffff1916827bffffffffffffffffffffffffffffffffffffffffffffffffffffffff1916148061037b575061037a82610a6c565b5b9050919050565b60016020528060005260406000206000915090505481565b6000806000838152602001908152602001600020600101549050919050565b6103e37f77057c9486c0c0b7bfbe402764b9bf817389ccf31bebf8010b4de82d2462928933610810565b610422576040517f08c379a000000000000000000000000000000000000000000000000000000000815260040161041990611536565b60405180910390fd5b600160028260405161043491906115d0565b908152602001604051809103902060040160006101000a81548160ff02191690831515021790555050565b6104688261039a565b61047981610474610ad6565b610ade565b6104838383610b7b565b505050565b610490610ad6565b73ffffffffffffffffffffffffffffffffffffffff168173ffffffffffffffffffffffffffffffffffffffff16146104fd576040517f08c379a00000000000000000000000000000000000000000000000000000000081526004016104f490611659565b60405180910390fd5b6105078282610c5b565b5050565b6105357fa49807205ce4d355092ef5a8a18f56e8913cf4a201fbe287825b095693c2177533610810565b610574576040517f08c379a000000000000000000000000000000000000000000000000000000000815260040161056b906116eb565b60405180910390fd5b61059e7f77057c9486c0c0b7bfbe402764b9bf817389ccf31bebf8010b4de82d2462928982610b7b565b50565b7fa49807205ce4d355092ef5a8a18f56e8913cf4a201fbe287825b095693c217756105d3816105ce610ad6565b610ade565b6105fd7f77057c9486c0c0b7bfbe402764b9bf817389ccf31bebf8010b4de82d2462928983610c5b565b5050565b7fa49807205ce4d355092ef5a8a18f56e8913cf4a201fbe287825b095693c2177581565b61064f7f77057c9486c0c0b7bfbe402764b9bf817389ccf31bebf8010b4de82d2462928933610810565b61068e576040517f08c379a00000000000000000000000000000000000000000000000000000000081526004016106859061177d565b60405180910390fd5b60006040518060c001604052808381526020013373ffffffffffffffffffffffffffffffffffffffff1681526020018460068111156106d0576106cf61179d565b5b8152602001428152602001600160008660068111156106f2576106f161179d565b5b60068111156107045761070361179d565b5b81526020019081526020016000205481526020016000151581525090508060028360405161073291906115d0565b9081526020016040518091039020600082015181600001908051906020019061075c929190610f78565b5060208201518160010160006101000a81548173ffffffffffffffffffffffffffffffffffffffff021916908373ffffffffffffffffffffffffffffffffffffffff16021790555060408201518160010160146101000a81548160ff021916908360068111156107cf576107ce61179d565b5b0217905550606082015181600201556080820151816003015560a08201518160040160006101000a81548160ff021916908315150217905550905050505050565b600080600084815260200190815260200160002060000160008373ffffffffffffffffffffffffffffffffffffffff1673ffffffffffffffffffffffffffffffffffffffff16815260200190815260200160002060009054906101000a900460ff16905092915050565b6000801b81565b60008060028360405161089491906115d0565b90815260200160405180910390206040518060c00160405290816000820180546108bd906117fb565b80601f01602080910402602001604051908101604052809291908181526020018280546108e9906117fb565b80156109365780601f1061090b57610100808354040283529160200191610936565b820191906000526020600020905b81548152906001019060200180831161091957829003601f168201915b505050505081526020016001820160009054906101000a900473ffffffffffffffffffffffffffffffffffffffff1673ffffffffffffffffffffffffffffffffffffffff1673ffffffffffffffffffffffffffffffffffffffff1681526020016001820160149054906101000a900460ff1660068111156109ba576109b961179d565b5b60068111156109cc576109cb61179d565b5b815260200160028201548152602001600382015481526020016004820160009054906101000a900460ff161515151581525050905080608001518160600151610a15919061185c565b4211915050919050565b610a288261039a565b610a3981610a34610ad6565b610ade565b610a438383610c5b565b505050565b7f77057c9486c0c0b7bfbe402764b9bf817389ccf31bebf8010b4de82d2462928981565b60007f01ffc9a7000000000000000000000000000000000000000000000000000000007bffffffffffffffffffffffffffffffffffffffffffffffffffffffff1916827bffffffffffffffffffffffffffffffffffffffffffffffffffffffff1916149050919050565b600033905090565b610ae88282610810565b610b7757610b0d8173ffffffffffffffffffffffffffffffffffffffff166014610d3c565b610b1b8360001c6020610d3c565b604051602001610b2c92919061194a565b6040516020818303038152906040526040517f08c379a0000000000000000000000000000000000000000000000000000000008152600401610b6e91906119bd565b60405180910390fd5b5050565b610b858282610810565b610c5757600160008084815260200190815260200160002060000160008373ffffffffffffffffffffffffffffffffffffffff1673ffffffffffffffffffffffffffffffffffffffff16815260200190815260200160002060006101000a81548160ff021916908315150217905550610bfc610ad6565b73ffffffffffffffffffffffffffffffffffffffff168173ffffffffffffffffffffffffffffffffffffffff16837f2f8788117e7eff1d82e926ec794901d17c78024a50270940304540a733656f0d60405160405180910390a45b5050565b610c658282610810565b15610d3857600080600084815260200190815260200160002060000160008373ffffffffffffffffffffffffffffffffffffffff1673ffffffffffffffffffffffffffffffffffffffff16815260200190815260200160002060006101000a81548160ff021916908315150217905550610cdd610ad6565b73ffffffffffffffffffffffffffffffffffffffff168173ffffffffffffffffffffffffffffffffffffffff16837ff6391f5c32d9c69d2a47ea670b442974b53935d1edc7fd64eb21e047a839171b60405160405180910390a45b5050565b606060006002836002610d4f91906119df565b610d59919061185c565b67ffffffffffffffff811115610d7257610d71611218565b5b6040519080825280601f01601f191660200182016040528015610da45781602001600182028036833780820191505090505b5090507f300000000000000000000000000000000000000000000000000000000000000081600081518110610ddc57610ddb611a39565b5b60200101907effffffffffffffffffffffffffffffffffffffffffffffffffffffffffffff1916908160001a9053507f780000000000000000000000000000000000000000000000000000000000000081600181518110610e4057610e3f611a39565b5b60200101907effffffffffffffffffffffffffffffffffffffffffffffffffffffffffffff1916908160001a90535060006001846002610e8091906119df565b610e8a919061185c565b90505b6001811115610f2a577f3031323334353637383961626364656600000000000000000000000000000000600f861660108110610ecc57610ecb611a39565b5b1a60f81b828281518110610ee357610ee2611a39565b5b60200101907effffffffffffffffffffffffffffffffffffffffffffffffffffffffffffff1916908160001a905350600485901c945080610f2390611a68565b9050610e8d565b5060008414610f6e576040517f08c379a0000000000000000000000000000000000000000000000000000000008152600401610f6590611ade565b60405180910390fd5b8091505092915050565b828054610f84906117fb565b90600052602060002090601f016020900481019282610fa65760008555610fed565b82601f10610fbf57805160ff1916838001178555610fed565b82800160010185558215610fed579182015b82811115610fec578251825591602001919060010190610fd1565b5b509050610ffa9190610ffe565b5090565b5b80821115611017576000816000905550600101610fff565b5090565b6000604051905090565b600080fd5b600080fd5b60007fffffffff0000000000000000000000000000000000000000000000000000000082169050919050565b6110648161102f565b811461106f57600080fd5b50565b6000813590506110818161105b565b92915050565b60006020828403121561109d5761109c611025565b5b60006110ab84828501611072565b91505092915050565b60008115159050919050565b6110c9816110b4565b82525050565b60006020820190506110e460008301846110c0565b92915050565b600781106110f757600080fd5b50565b600081359050611109816110ea565b92915050565b60006020828403121561112557611124611025565b5b6000611133848285016110fa565b91505092915050565b6000819050919050565b61114f8161113c565b82525050565b600060208201905061116a6000830184611146565b92915050565b6000819050919050565b61118381611170565b811461118e57600080fd5b50565b6000813590506111a08161117a565b92915050565b6000602082840312156111bc576111bb611025565b5b60006111ca84828501611191565b91505092915050565b6111dc81611170565b82525050565b60006020820190506111f760008301846111d3565b92915050565b600080fd5b600080fd5b6000601f19601f8301169050919050565b7f4e487b7100000000000000000000000000000000000000000000000000000000600052604160045260246000fd5b61125082611207565b810181811067ffffffffffffffff8211171561126f5761126e611218565b5b80604052505050565b600061128261101b565b905061128e8282611247565b919050565b600067ffffffffffffffff8211156112ae576112ad611218565b5b6112b782611207565b9050602081019050919050565b82818337600083830152505050565b60006112e66112e184611293565b611278565b90508281526020810184848401111561130257611301611202565b5b61130d8482856112c4565b509392505050565b600082601f83011261132a576113296111fd565b5b813561133a8482602086016112d3565b91505092915050565b60006020828403121561135957611358611025565b5b600082013567ffffffffffffffff8111156113775761137661102a565b5b61138384828501611315565b91505092915050565b600073ffffffffffffffffffffffffffffffffffffffff82169050919050565b60006113b78261138c565b9050919050565b6113c7816113ac565b81146113d257600080fd5b50565b6000813590506113e4816113be565b92915050565b6000806040838503121561140157611400611025565b5b600061140f85828601611191565b9250506020611420858286016113d5565b9150509250929050565b6000602082840312156114405761143f611025565b5b600061144e848285016113d5565b91505092915050565b6000806040838503121561146e5761146d611025565b5b600061147c858286016110fa565b925050602083013567ffffffffffffffff81111561149d5761149c61102a565b5b6114a985828601611315565b9150509250929050565b600082825260208201905092915050565b7f4f4e4c5920415554484f52495a454420454e5449544945532043414e20494e5660008201527f414c494441544520412043455254494649434154494f4e000000000000000000602082015250565b60006115206037836114b3565b915061152b826114c4565b604082019050919050565b6000602082019050818103600083015261154f81611513565b9050919050565b600081519050919050565b600081905092915050565b60005b8381101561158a57808201518184015260208101905061156f565b83811115611599576000848401525b50505050565b60006115aa82611556565b6115b48185611561565b93506115c481856020860161156c565b80840191505092915050565b60006115dc828461159f565b915081905092915050565b7f416363657373436f6e74726f6c3a2063616e206f6e6c792072656e6f756e636560008201527f20726f6c657320666f722073656c660000000000000000000000000000000000602082015250565b6000611643602f836114b3565b915061164e826115e7565b604082019050919050565b6000602082019050818103600083015261167281611636565b9050919050565b7f494e56414c494420524f4c453a204f4e4c592041444d494e2043414e2047524160008201527f4e54205448495320524f4c450000000000000000000000000000000000000000602082015250565b60006116d5602c836114b3565b91506116e082611679565b604082019050919050565b60006020820190508181036000830152611704816116c8565b9050919050565b7f4f4e4c5920415554484f52495a454420454e5449544945532043414e2043524560008201527f4154452041204e45572043455254494649434154494f4e000000000000000000602082015250565b60006117676037836114b3565b91506117728261170b565b604082019050919050565b600060208201905081810360008301526117968161175a565b9050919050565b7f4e487b7100000000000000000000000000000000000000000000000000000000600052602160045260246000fd5b7f4e487b7100000000000000000000000000000000000000000000000000000000600052602260045260246000fd5b6000600282049050600182168061181357607f821691505b60208210811415611827576118266117cc565b5b50919050565b7f4e487b7100000000000000000000000000000000000000000000000000000000600052601160045260246000fd5b60006118678261113c565b91506118728361113c565b9250827fffffffffffffffffffffffffffffffffffffffffffffffffffffffffffffffff038211156118a7576118a661182d565b5b828201905092915050565b7f416363657373436f6e74726f6c3a206163636f756e7420000000000000000000600082015250565b60006118e8601783611561565b91506118f3826118b2565b601782019050919050565b7f206973206d697373696e6720726f6c6520000000000000000000000000000000600082015250565b6000611934601183611561565b915061193f826118fe565b601182019050919050565b6000611955826118db565b9150611961828561159f565b915061196c82611927565b9150611978828461159f565b91508190509392505050565b600061198f82611556565b61199981856114b3565b93506119a981856020860161156c565b6119b281611207565b840191505092915050565b600060208201905081810360008301526119d78184611984565b905092915050565b60006119ea8261113c565b91506119f58361113c565b9250817fffffffffffffffffffffffffffffffffffffffffffffffffffffffffffffffff0483118215151615611a2e57611a2d61182d565b5b828202905092915050565b7f4e487b7100000000000000000000000000000000000000000000000000000000600052603260045260246000fd5b6000611a738261113c565b91506000821415611a8757611a8661182d565b5b600182039050919050565b7f537472696e67733a20686578206c656e67746820696e73756666696369656e74600082015250565b6000611ac86020836114b3565b9150611ad382611a92565b602082019050919050565b60006020820190508181036000830152611af781611abb565b905091905056fea2646970667358221220d8478e96f128ce7dc670462e41c2f9e8396e517922775fbe03d9917d8fc558c864736f6c63430008090033",
  "immutableReferences": {},
  "source": "// SPDX-License-Identifier: MIT\npragma solidity >=0.4.22 <0.9.0;\n\nimport './RolesManager.sol';\nimport './Certification.sol';\n\n/**\n * @title GreenPassCertification contract\n * @author Alessandro Straziota, Michele Cirillo\n * @notice Contratto che offre strumenti utili per la verifica della validit dei green pass rispetto a determinate attivit.\n * @dev Contratto che offre strumenti utili per la verifica della validit dei green pass rispetto a determinate attivit.\n */\ncontract GreenPassCertification is RolesManager, Certification {\n\n  /**\n   * @dev mappa `QRCODE` => `GreenPass`\n   */\n  mapping (string => GreenPass) private certificates;\n  \n  /**\n   * @dev Funzione che genera un certificato di tipo `certificationType` e lo assoccia al suo identificatore `qrcode`.\n   * La transazione va a buon fine solo se colui che invoca il metodo `msg.sender` ha il ruolo `CERTIFICATION_MINTER_ROLE`.\n   * @param certificationType il tipo del certificato rilasciato\n   * @param qrcode il codice qr del certificato\n   */\n  function emitCertification(CertificationType certificationType, string memory qrcode) public {\n    require(hasRole(CERTIFICATION_MINTER_ROLE, msg.sender), \"ONLY AUTHORIZED ENTITIES CAN CREATE A NEW CERTIFICATION\");\n\n    GreenPass memory certificate = GreenPass(\n        qrcode,                       // qrcode\n        msg.sender,                   // emitter\n        certificationType,            // certificationType\n        block.timestamp,              // creation\n        durations[certificationType], // duration\n        false                         // invalidated\n    );\n    certificates[qrcode] = certificate;\n  }\n\n  /**\n   * @dev Funzione che dato il QR-code di un green pass ritorna `true` se  scaduto, `false` altrimenti.\n   * @param qrcode il QR-code presente su un green pass\n   * @return       isExpired\n   */\n  function isExpired(string memory qrcode) public view returns (bool) {\n    GreenPass memory certificate = certificates[qrcode];\n    return block.timestamp > certificate.creation + certificate.duration;\n  }\n\n  /**\n   * @dev Funzione che dato il QR-code di un green pass lo invalida.\n   * Solo un indirizzo con ruolo `CERTIFICATION_MINTER_ROLE` pu invocare questa funzione.\n   */\n  function invalidateCertificate(string memory qrcode) public {\n    require(hasRole(CERTIFICATION_MINTER_ROLE, msg.sender), \"ONLY AUTHORIZED ENTITIES CAN INVALIDATE A CERTIFICATION\");\n    certificates[qrcode].invalidated = true;\n  }\n\n}",
  "sourcePath": "/home/alessandro/SDC/progetto-SDC/contracts/GreenPassCertification.sol",
  "compiler": {
    "name": "solc",
    "version": "0.8.9+commit.e5eed63a.Emscripten.clang"
  },
  "schemaVersion": "3.4.3",
  "updatedAt": "2022-01-31T20:45:22.593Z",
  "networkType": "ethereum",
  "devdoc": {
    "author": "Alessandro Straziota, Michele Cirillo",
    "details": "Contratto che offre strumenti utili per la verifica della validit dei green pass rispetto a determinate attivit.",
    "kind": "dev",
    "methods": {
      "emitCertification(uint8,string)": {
        "details": "Funzione che genera un certificato di tipo `certificationType` e lo assoccia al suo identificatore `qrcode`. La transazione va a buon fine solo se colui che invoca il metodo `msg.sender` ha il ruolo `CERTIFICATION_MINTER_ROLE`.",
        "params": {
          "certificationType": "il tipo del certificato rilasciato",
          "qrcode": "il codice qr del certificato"
        }
      },
      "getRoleAdmin(bytes32)": {
        "details": "Returns the admin role that controls `role`. See {grantRole} and {revokeRole}. To change a role's admin, use {_setRoleAdmin}."
      },
      "grantCertificationMinterRole(address)": {
        "details": "funzione che assegna il ruolo `CERTIFICATION_MINTER_ROLE` che consente ad un indirizzo di generare nuovi certificati. Questo metodo pu essere invocato solamente dagli indirizzi con il ruolo `ADMIN_ROLE`.",
        "params": {
          "to": "indirizzo a cui assegnare ruolo `CERTIFICATION_MINTER_ROLE`."
        }
      },
      "grantRole(bytes32,address)": {
        "details": "Grants `role` to `account`. If `account` had not been already granted `role`, emits a {RoleGranted} event. Requirements: - the caller must have ``role``'s admin role."
      },
      "hasRole(bytes32,address)": {
        "details": "Returns `true` if `account` has been granted `role`."
      },
      "invalidateCertificate(string)": {
        "details": "Funzione che dato il QR-code di un green pass lo invalida. Solo un indirizzo con ruolo `CERTIFICATION_MINTER_ROLE` pu invocare questa funzione."
      },
      "isExpired(string)": {
        "details": "Funzione che dato il QR-code di un green pass ritorna `true` se  scaduto, `false` altrimenti.",
        "params": {
          "qrcode": "il QR-code presente su un green pass"
        },
        "returns": {
          "_0": "isExpired"
        }
      },
      "renounceRole(bytes32,address)": {
        "details": "Revokes `role` from the calling account. Roles are often managed via {grantRole} and {revokeRole}: this function's purpose is to provide a mechanism for accounts to lose their privileges if they are compromised (such as when a trusted device is misplaced). If the calling account had been revoked `role`, emits a {RoleRevoked} event. Requirements: - the caller must be `account`."
      },
      "revokeCertificationMinterRole(address)": {
        "details": "funzione che revoca il ruolo `CERTIFICATION_MINTER_ROLE` ad un indirizzo. Questo metodo pu essere invocato solamente dagli indirizzi con il ruolo `ADMIN_ROLE`. See {grantCertificationMinterRole}.",
        "params": {
          "to": "indirizzo a cui assegnare ruolo `CERTIFICATION_MINTER_ROLE`."
        }
      },
      "revokeRole(bytes32,address)": {
        "details": "Revokes `role` from `account`. If `account` had been granted `role`, emits a {RoleRevoked} event. Requirements: - the caller must have ``role``'s admin role."
      },
      "supportsInterface(bytes4)": {
        "details": "See {IERC165-supportsInterface}."
      }
    },
    "stateVariables": {
      "certificates": {
        "details": "mappa `QRCODE` => `GreenPass`"
      }
    },
    "title": "GreenPassCertification contract",
    "version": 1
  },
  "userdoc": {
    "kind": "user",
    "methods": {},
    "notice": "Contratto che offre strumenti utili per la verifica della validit dei green pass rispetto a determinate attivit.",
    "version": 1
  }
}