{
  "contractName": "Region",
  "abi": [
    {
      "inputs": [],
      "stateMutability": "nonpayable",
      "type": "constructor"
    },
    {
      "inputs": [
        {
          "internalType": "enum Region.Regions",
          "name": "",
          "type": "uint8"
        }
      ],
      "name": "colors",
      "outputs": [
        {
          "internalType": "enum Region.Colors",
          "name": "",
          "type": "uint8"
        }
      ],
      "stateMutability": "view",
      "type": "function"
    }
  ],
  "bytecode": "0x60806040523480156200001157600080fd5b5060008060008060138111156200002d576200002c6200084a565b5b60138111156200004257620000416200084a565b5b815260200190815260200160002060006101000a81548160ff021916908360028111156200007557620000746200084a565b5b02179055506000806000600160138111156200009657620000956200084a565b5b6013811115620000ab57620000aa6200084a565b5b815260200190815260200160002060006101000a81548160ff02191690836002811115620000de57620000dd6200084a565b5b0217905550600080600060026013811115620000ff57620000fe6200084a565b5b60138111156200011457620001136200084a565b5b815260200190815260200160002060006101000a81548160ff021916908360028111156200014757620001466200084a565b5b02179055506000806000600360138111156200016857620001676200084a565b5b60138111156200017d576200017c6200084a565b5b815260200190815260200160002060006101000a81548160ff02191690836002811115620001b057620001af6200084a565b5b0217905550600080600060046013811115620001d157620001d06200084a565b5b6013811115620001e657620001e56200084a565b5b815260200190815260200160002060006101000a81548160ff021916908360028111156200021957620002186200084a565b5b02179055506000806000600560138111156200023a57620002396200084a565b5b60138111156200024f576200024e6200084a565b5b815260200190815260200160002060006101000a81548160ff021916908360028111156200028257620002816200084a565b5b0217905550600080600060066013811115620002a357620002a26200084a565b5b6013811115620002b857620002b76200084a565b5b815260200190815260200160002060006101000a81548160ff02191690836002811115620002eb57620002ea6200084a565b5b02179055506000806000600760138111156200030c576200030b6200084a565b5b60138111156200032157620003206200084a565b5b815260200190815260200160002060006101000a81548160ff021916908360028111156200035457620003536200084a565b5b02179055506000806000600860138111156200037557620003746200084a565b5b60138111156200038a57620003896200084a565b5b815260200190815260200160002060006101000a81548160ff02191690836002811115620003bd57620003bc6200084a565b5b0217905550600080600060096013811115620003de57620003dd6200084a565b5b6013811115620003f357620003f26200084a565b5b815260200190815260200160002060006101000a81548160ff021916908360028111156200042657620004256200084a565b5b02179055506000806000600a60138111156200044757620004466200084a565b5b60138111156200045c576200045b6200084a565b5b815260200190815260200160002060006101000a81548160ff021916908360028111156200048f576200048e6200084a565b5b02179055506000806000600b6013811115620004b057620004af6200084a565b5b6013811115620004c557620004c46200084a565b5b815260200190815260200160002060006101000a81548160ff02191690836002811115620004f857620004f76200084a565b5b02179055506000806000600c60138111156200051957620005186200084a565b5b60138111156200052e576200052d6200084a565b5b815260200190815260200160002060006101000a81548160ff021916908360028111156200056157620005606200084a565b5b02179055506000806000600d60138111156200058257620005816200084a565b5b60138111156200059757620005966200084a565b5b815260200190815260200160002060006101000a81548160ff02191690836002811115620005ca57620005c96200084a565b5b02179055506000806000600e6013811115620005eb57620005ea6200084a565b5b60138111156200060057620005ff6200084a565b5b815260200190815260200160002060006101000a81548160ff021916908360028111156200063357620006326200084a565b5b02179055506000806000600f60138111156200065457620006536200084a565b5b60138111156200066957620006686200084a565b5b815260200190815260200160002060006101000a81548160ff021916908360028111156200069c576200069b6200084a565b5b0217905550600080600060106013811115620006bd57620006bc6200084a565b5b6013811115620006d257620006d16200084a565b5b815260200190815260200160002060006101000a81548160ff021916908360028111156200070557620007046200084a565b5b02179055506000806000601160138111156200072657620007256200084a565b5b60138111156200073b576200073a6200084a565b5b815260200190815260200160002060006101000a81548160ff021916908360028111156200076e576200076d6200084a565b5b02179055506000806000601260138111156200078f576200078e6200084a565b5b6013811115620007a457620007a36200084a565b5b815260200190815260200160002060006101000a81548160ff02191690836002811115620007d757620007d66200084a565b5b02179055506000806000601380811115620007f757620007f66200084a565b5b60138111156200080c576200080b6200084a565b5b815260200190815260200160002060006101000a81548160ff021916908360028111156200083f576200083e6200084a565b5b021790555062000879565b7f4e487b7100000000000000000000000000000000000000000000000000000000600052602160045260246000fd5b61019f80620008896000396000f3fe608060405234801561001057600080fd5b506004361061002b5760003560e01c8063dfb69cb214610030575b600080fd5b61004a600480360381019061004591906100aa565b610060565b604051610057919061014e565b60405180910390f35b60006020528060005260406000206000915054906101000a900460ff1681565b600080fd5b6014811061009257600080fd5b50565b6000813590506100a481610085565b92915050565b6000602082840312156100c0576100bf610080565b5b60006100ce84828501610095565b91505092915050565b7f4e487b7100000000000000000000000000000000000000000000000000000000600052602160045260246000fd5b60038110610117576101166100d7565b5b50565b600081905061012882610106565b919050565b60006101388261011a565b9050919050565b6101488161012d565b82525050565b6000602082019050610163600083018461013f565b9291505056fea2646970667358221220a17896266e4673c2786cc6b0c714e30e0d647cd028fac5b5e3b8a6e8f0c2a39b64736f6c63430008090033",
  "immutableReferences": {},
  "source": "// SPDX-License-Identifier: MIT\npragma solidity >=0.4.22 <0.9.0;\n\ncontract Region {\n    enum Regions {\n        ABRUZZO,\n        BASILICATA,\n        CALABRIA,\n        CAMPANIA,\n        EMILIA_ROMAGNA,\n        FRIULI_VENEZIA_GIULIA,\n        LAZIO,\n        LIGURIA,\n        LOMBARDIA,\n        MARCHE,\n        MOLISE,\n        PIEMONTE,\n        PUGLIA,\n        SARDEGNA,\n        SICILIA,\n        TOSCANA,\n        TRENTINO_ALTO_ADIGE,\n        UMBRIA,\n        VALLE_DAOSTA,\n        VENETO\n    }\n\n    enum Colors {WHITE, YELLOW, ORANGE}\n\n    mapping (Regions => Colors) public colors;\n\n    constructor() {\n        colors[Regions.ABRUZZO] = Colors.WHITE;\n        colors[Regions.BASILICATA] = Colors.WHITE;\n        colors[Regions.CALABRIA] = Colors.WHITE;\n        colors[Regions.CAMPANIA] = Colors.WHITE;\n        colors[Regions.EMILIA_ROMAGNA] = Colors.WHITE;\n        colors[Regions.FRIULI_VENEZIA_GIULIA] = Colors.WHITE;\n        colors[Regions.LAZIO] = Colors.WHITE;\n        colors[Regions.LIGURIA] = Colors.WHITE;\n        colors[Regions.LOMBARDIA] = Colors.WHITE;\n        colors[Regions.MARCHE] = Colors.WHITE;\n        colors[Regions.MOLISE] = Colors.WHITE;\n        colors[Regions.PIEMONTE] = Colors.WHITE;\n        colors[Regions.PUGLIA] = Colors.WHITE;\n        colors[Regions.SARDEGNA] = Colors.WHITE;\n        colors[Regions.SICILIA] = Colors.WHITE;\n        colors[Regions.TOSCANA] = Colors.WHITE;\n        colors[Regions.TRENTINO_ALTO_ADIGE] = Colors.WHITE;\n        colors[Regions.UMBRIA] = Colors.WHITE;\n        colors[Regions.VALLE_DAOSTA] = Colors.WHITE;\n        colors[Regions.VENETO] = Colors.WHITE;\n    }\n}",
  "sourcePath": "/home/alessandro/SDC/progetto-SDC/contracts/Region.sol",
  "compiler": {
    "name": "solc",
    "version": "0.8.9+commit.e5eed63a.Emscripten.clang"
  },
  "schemaVersion": "3.4.3",
  "updatedAt": "2022-02-01T00:20:11.016Z",
  "devdoc": {
    "kind": "dev",
    "methods": {},
    "version": 1
  },
  "userdoc": {
    "kind": "user",
    "methods": {},
    "version": 1
  }
}