{
  "contractName": "RolesManager",
  "abi": [
    {
      "inputs": [],
      "stateMutability": "nonpayable",
      "type": "constructor"
    },
    {
      "anonymous": false,
      "inputs": [
        {
          "indexed": true,
          "internalType": "bytes32",
          "name": "role",
          "type": "bytes32"
        },
        {
          "indexed": true,
          "internalType": "bytes32",
          "name": "previousAdminRole",
          "type": "bytes32"
        },
        {
          "indexed": true,
          "internalType": "bytes32",
          "name": "newAdminRole",
          "type": "bytes32"
        }
      ],
      "name": "RoleAdminChanged",
      "type": "event"
    },
    {
      "anonymous": false,
      "inputs": [
        {
          "indexed": true,
          "internalType": "bytes32",
          "name": "role",
          "type": "bytes32"
        },
        {
          "indexed": true,
          "internalType": "address",
          "name": "account",
          "type": "address"
        },
        {
          "indexed": true,
          "internalType": "address",
          "name": "sender",
          "type": "address"
        }
      ],
      "name": "RoleGranted",
      "type": "event"
    },
    {
      "anonymous": false,
      "inputs": [
        {
          "indexed": true,
          "internalType": "bytes32",
          "name": "role",
          "type": "bytes32"
        },
        {
          "indexed": true,
          "internalType": "address",
          "name": "account",
          "type": "address"
        },
        {
          "indexed": true,
          "internalType": "address",
          "name": "sender",
          "type": "address"
        }
      ],
      "name": "RoleRevoked",
      "type": "event"
    },
    {
      "inputs": [],
      "name": "ADMIN_ROLE",
      "outputs": [
        {
          "internalType": "bytes32",
          "name": "",
          "type": "bytes32"
        }
      ],
      "stateMutability": "view",
      "type": "function"
    },
    {
      "inputs": [],
      "name": "CERTIFICATION_MINTER_ROLE",
      "outputs": [
        {
          "internalType": "bytes32",
          "name": "",
          "type": "bytes32"
        }
      ],
      "stateMutability": "view",
      "type": "function"
    },
    {
      "inputs": [],
      "name": "DEFAULT_ADMIN_ROLE",
      "outputs": [
        {
          "internalType": "bytes32",
          "name": "",
          "type": "bytes32"
        }
      ],
      "stateMutability": "view",
      "type": "function"
    },
    {
      "inputs": [
        {
          "internalType": "bytes32",
          "name": "role",
          "type": "bytes32"
        }
      ],
      "name": "getRoleAdmin",
      "outputs": [
        {
          "internalType": "bytes32",
          "name": "",
          "type": "bytes32"
        }
      ],
      "stateMutability": "view",
      "type": "function"
    },
    {
      "inputs": [
        {
          "internalType": "bytes32",
          "name": "role",
          "type": "bytes32"
        },
        {
          "internalType": "address",
          "name": "account",
          "type": "address"
        }
      ],
      "name": "grantRole",
      "outputs": [],
      "stateMutability": "nonpayable",
      "type": "function"
    },
    {
      "inputs": [
        {
          "internalType": "bytes32",
          "name": "role",
          "type": "bytes32"
        },
        {
          "internalType": "address",
          "name": "account",
          "type": "address"
        }
      ],
      "name": "hasRole",
      "outputs": [
        {
          "internalType": "bool",
          "name": "",
          "type": "bool"
        }
      ],
      "stateMutability": "view",
      "type": "function"
    },
    {
      "inputs": [
        {
          "internalType": "bytes32",
          "name": "role",
          "type": "bytes32"
        },
        {
          "internalType": "address",
          "name": "account",
          "type": "address"
        }
      ],
      "name": "renounceRole",
      "outputs": [],
      "stateMutability": "nonpayable",
      "type": "function"
    },
    {
      "inputs": [
        {
          "internalType": "bytes32",
          "name": "role",
          "type": "bytes32"
        },
        {
          "internalType": "address",
          "name": "account",
          "type": "address"
        }
      ],
      "name": "revokeRole",
      "outputs": [],
      "stateMutability": "nonpayable",
      "type": "function"
    },
    {
      "inputs": [
        {
          "internalType": "bytes4",
          "name": "interfaceId",
          "type": "bytes4"
        }
      ],
      "name": "supportsInterface",
      "outputs": [
        {
          "internalType": "bool",
          "name": "",
          "type": "bool"
        }
      ],
      "stateMutability": "view",
      "type": "function"
    },
    {
      "inputs": [
        {
          "internalType": "address",
          "name": "to",
          "type": "address"
        }
      ],
      "name": "grantCertificationMinterRole",
      "outputs": [],
      "stateMutability": "nonpayable",
      "type": "function"
    },
    {
      "inputs": [
        {
          "internalType": "address",
          "name": "to",
          "type": "address"
        }
      ],
      "name": "revokeCertificationMinterRole",
      "outputs": [],
      "stateMutability": "nonpayable",
      "type": "function"
    }
  ],
  "bytecode": "0x608060405234801561001057600080fd5b506100417fa49807205ce4d355092ef5a8a18f56e8913cf4a201fbe287825b095693c217753361004660201b60201c565b6101b8565b610056828261005a60201b60201c565b5050565b61006a828261014660201b60201c565b61014257600160008084815260200190815260200160002060000160008373ffffffffffffffffffffffffffffffffffffffff1673ffffffffffffffffffffffffffffffffffffffff16815260200190815260200160002060006101000a81548160ff0219169083151502179055506100e76101b060201b60201c565b73ffffffffffffffffffffffffffffffffffffffff168173ffffffffffffffffffffffffffffffffffffffff16837f2f8788117e7eff1d82e926ec794901d17c78024a50270940304540a733656f0d60405160405180910390a45b5050565b600080600084815260200190815260200160002060000160008373ffffffffffffffffffffffffffffffffffffffff1673ffffffffffffffffffffffffffffffffffffffff16815260200190815260200160002060009054906101000a900460ff16905092915050565b600033905090565b611165806101c76000396000f3fe608060405234801561001057600080fd5b50600436106100a95760003560e01c80637317d8ab116100715780637317d8ab1461016257806375b238fc1461017e57806391d148541461019c578063a217fddf146101cc578063d547741f146101ea578063eec1eddd14610206576100a9565b806301ffc9a7146100ae578063248a9ca3146100de5780632f2ff15d1461010e57806336568abe1461012a57806362281d8c14610146575b600080fd5b6100c860048036038101906100c39190610aaa565b610224565b6040516100d59190610af2565b60405180910390f35b6100f860048036038101906100f39190610b43565b61029e565b6040516101059190610b7f565b60405180910390f35b61012860048036038101906101239190610bf8565b6102bd565b005b610144600480360381019061013f9190610bf8565b6102e6565b005b610160600480360381019061015b9190610c38565b610369565b005b61017c60048036038101906101779190610c38565b6103ff565b005b61018661045f565b6040516101939190610b7f565b60405180910390f35b6101b660048036038101906101b19190610bf8565b610483565b6040516101c39190610af2565b60405180910390f35b6101d46104ed565b6040516101e19190610b7f565b60405180910390f35b61020460048036038101906101ff9190610bf8565b6104f4565b005b61020e61051d565b60405161021b9190610b7f565b60405180910390f35b60007f7965db0b000000000000000000000000000000000000000000000000000000007bffffffffffffffffffffffffffffffffffffffffffffffffffffffff1916827bffffffffffffffffffffffffffffffffffffffffffffffffffffffff19161480610297575061029682610541565b5b9050919050565b6000806000838152602001908152602001600020600101549050919050565b6102c68261029e565b6102d7816102d26105ab565b6105b3565b6102e18383610650565b505050565b6102ee6105ab565b73ffffffffffffffffffffffffffffffffffffffff168173ffffffffffffffffffffffffffffffffffffffff161461035b576040517f08c379a000000000000000000000000000000000000000000000000000000000815260040161035290610ce8565b60405180910390fd5b6103658282610730565b5050565b6103937fa49807205ce4d355092ef5a8a18f56e8913cf4a201fbe287825b095693c2177533610483565b6103d2576040517f08c379a00000000000000000000000000000000000000000000000000000000081526004016103c990610d7a565b60405180910390fd5b6103fc7f77057c9486c0c0b7bfbe402764b9bf817389ccf31bebf8010b4de82d2462928982610650565b50565b7fa49807205ce4d355092ef5a8a18f56e8913cf4a201fbe287825b095693c217756104318161042c6105ab565b6105b3565b61045b7f77057c9486c0c0b7bfbe402764b9bf817389ccf31bebf8010b4de82d2462928983610730565b5050565b7fa49807205ce4d355092ef5a8a18f56e8913cf4a201fbe287825b095693c2177581565b600080600084815260200190815260200160002060000160008373ffffffffffffffffffffffffffffffffffffffff1673ffffffffffffffffffffffffffffffffffffffff16815260200190815260200160002060009054906101000a900460ff16905092915050565b6000801b81565b6104fd8261029e565b61050e816105096105ab565b6105b3565b6105188383610730565b505050565b7f77057c9486c0c0b7bfbe402764b9bf817389ccf31bebf8010b4de82d2462928981565b60007f01ffc9a7000000000000000000000000000000000000000000000000000000007bffffffffffffffffffffffffffffffffffffffffffffffffffffffff1916827bffffffffffffffffffffffffffffffffffffffffffffffffffffffff1916149050919050565b600033905090565b6105bd8282610483565b61064c576105e28173ffffffffffffffffffffffffffffffffffffffff166014610811565b6105f08360001c6020610811565b604051602001610601929190610eac565b6040516020818303038152906040526040517f08c379a00000000000000000000000000000000000000000000000000000000081526004016106439190610f30565b60405180910390fd5b5050565b61065a8282610483565b61072c57600160008084815260200190815260200160002060000160008373ffffffffffffffffffffffffffffffffffffffff1673ffffffffffffffffffffffffffffffffffffffff16815260200190815260200160002060006101000a81548160ff0219169083151502179055506106d16105ab565b73ffffffffffffffffffffffffffffffffffffffff168173ffffffffffffffffffffffffffffffffffffffff16837f2f8788117e7eff1d82e926ec794901d17c78024a50270940304540a733656f0d60405160405180910390a45b5050565b61073a8282610483565b1561080d57600080600084815260200190815260200160002060000160008373ffffffffffffffffffffffffffffffffffffffff1673ffffffffffffffffffffffffffffffffffffffff16815260200190815260200160002060006101000a81548160ff0219169083151502179055506107b26105ab565b73ffffffffffffffffffffffffffffffffffffffff168173ffffffffffffffffffffffffffffffffffffffff16837ff6391f5c32d9c69d2a47ea670b442974b53935d1edc7fd64eb21e047a839171b60405160405180910390a45b5050565b6060600060028360026108249190610f8b565b61082e9190610fe5565b67ffffffffffffffff8111156108475761084661103b565b5b6040519080825280601f01601f1916602001820160405280156108795781602001600182028036833780820191505090505b5090507f3000000000000000000000000000000000000000000000000000000000000000816000815181106108b1576108b061106a565b5b60200101907effffffffffffffffffffffffffffffffffffffffffffffffffffffffffffff1916908160001a9053507f7800000000000000000000000000000000000000000000000000000000000000816001815181106109155761091461106a565b5b60200101907effffffffffffffffffffffffffffffffffffffffffffffffffffffffffffff1916908160001a905350600060018460026109559190610f8b565b61095f9190610fe5565b90505b60018111156109ff577f3031323334353637383961626364656600000000000000000000000000000000600f8616601081106109a1576109a061106a565b5b1a60f81b8282815181106109b8576109b761106a565b5b60200101907effffffffffffffffffffffffffffffffffffffffffffffffffffffffffffff1916908160001a905350600485901c9450806109f890611099565b9050610962565b5060008414610a43576040517f08c379a0000000000000000000000000000000000000000000000000000000008152600401610a3a9061110f565b60405180910390fd5b8091505092915050565b600080fd5b60007fffffffff0000000000000000000000000000000000000000000000000000000082169050919050565b610a8781610a52565b8114610a9257600080fd5b50565b600081359050610aa481610a7e565b92915050565b600060208284031215610ac057610abf610a4d565b5b6000610ace84828501610a95565b91505092915050565b60008115159050919050565b610aec81610ad7565b82525050565b6000602082019050610b076000830184610ae3565b92915050565b6000819050919050565b610b2081610b0d565b8114610b2b57600080fd5b50565b600081359050610b3d81610b17565b92915050565b600060208284031215610b5957610b58610a4d565b5b6000610b6784828501610b2e565b91505092915050565b610b7981610b0d565b82525050565b6000602082019050610b946000830184610b70565b92915050565b600073ffffffffffffffffffffffffffffffffffffffff82169050919050565b6000610bc582610b9a565b9050919050565b610bd581610bba565b8114610be057600080fd5b50565b600081359050610bf281610bcc565b92915050565b60008060408385031215610c0f57610c0e610a4d565b5b6000610c1d85828601610b2e565b9250506020610c2e85828601610be3565b9150509250929050565b600060208284031215610c4e57610c4d610a4d565b5b6000610c5c84828501610be3565b91505092915050565b600082825260208201905092915050565b7f416363657373436f6e74726f6c3a2063616e206f6e6c792072656e6f756e636560008201527f20726f6c657320666f722073656c660000000000000000000000000000000000602082015250565b6000610cd2602f83610c65565b9150610cdd82610c76565b604082019050919050565b60006020820190508181036000830152610d0181610cc5565b9050919050565b7f494e56414c494420524f4c453a204f4e4c592041444d494e2043414e2047524160008201527f4e54205448495320524f4c450000000000000000000000000000000000000000602082015250565b6000610d64602c83610c65565b9150610d6f82610d08565b604082019050919050565b60006020820190508181036000830152610d9381610d57565b9050919050565b600081905092915050565b7f416363657373436f6e74726f6c3a206163636f756e7420000000000000000000600082015250565b6000610ddb601783610d9a565b9150610de682610da5565b601782019050919050565b600081519050919050565b60005b83811015610e1a578082015181840152602081019050610dff565b83811115610e29576000848401525b50505050565b6000610e3a82610df1565b610e448185610d9a565b9350610e54818560208601610dfc565b80840191505092915050565b7f206973206d697373696e6720726f6c6520000000000000000000000000000000600082015250565b6000610e96601183610d9a565b9150610ea182610e60565b601182019050919050565b6000610eb782610dce565b9150610ec38285610e2f565b9150610ece82610e89565b9150610eda8284610e2f565b91508190509392505050565b6000601f19601f8301169050919050565b6000610f0282610df1565b610f0c8185610c65565b9350610f1c818560208601610dfc565b610f2581610ee6565b840191505092915050565b60006020820190508181036000830152610f4a8184610ef7565b905092915050565b6000819050919050565b7f4e487b7100000000000000000000000000000000000000000000000000000000600052601160045260246000fd5b6000610f9682610f52565b9150610fa183610f52565b9250817fffffffffffffffffffffffffffffffffffffffffffffffffffffffffffffffff0483118215151615610fda57610fd9610f5c565b5b828202905092915050565b6000610ff082610f52565b9150610ffb83610f52565b9250827fffffffffffffffffffffffffffffffffffffffffffffffffffffffffffffffff038211156110305761102f610f5c565b5b828201905092915050565b7f4e487b7100000000000000000000000000000000000000000000000000000000600052604160045260246000fd5b7f4e487b7100000000000000000000000000000000000000000000000000000000600052603260045260246000fd5b60006110a482610f52565b915060008214156110b8576110b7610f5c565b5b600182039050919050565b7f537472696e67733a20686578206c656e67746820696e73756666696369656e74600082015250565b60006110f9602083610c65565b9150611104826110c3565b602082019050919050565b60006020820190508181036000830152611128816110ec565b905091905056fea264697066735822122084c0ca20d3e8d389d8fad84e0b5cc71333bbdcc585fb258241c62159c21494d164736f6c63430008090033",
  "immutableReferences": {},
  "source": "// SPDX-License-Identifier: MIT\npragma solidity >=0.4.22 <0.9.0;\n\n//import \"@openzeppelin/contracts/access/Ownable.sol\";\nimport \"@openzeppelin/contracts/access/AccessControl.sol\";\n\n/**\n * @dev contratto utile a gestire i ruoli dei diversi indirizzi\n */\ncontract RolesManager is AccessControl {\n  // ROLES\n  bytes32 public constant ADMIN_ROLE = keccak256(\"ADMIN_ROLE\");\n  bytes32 public constant CERTIFICATION_MINTER_ROLE = keccak256(\"CERTIFICATION_MINTER_ROLE\");\n\n  constructor () {\n    _setupRole(ADMIN_ROLE, msg.sender);\n  }\n\n  /**\n   * @dev funzione che assegna il ruolo `CERTIFICATION_MINTER_ROLE` che consente ad un indirizzo di generare nuovi certificati.\n   * Questo metodo pu essere invocato solamente dagli indirizzi con il ruolo `ADMIN_ROLE`.\n   * @param to indirizzo a cui assegnare ruolo `CERTIFICATION_MINTER_ROLE`.\n   */\n  function grantCertificationMinterRole(address to) public {\n    require(hasRole(ADMIN_ROLE, msg.sender), \"INVALID ROLE: ONLY ADMIN CAN GRANT THIS ROLE\");\n    _grantRole(CERTIFICATION_MINTER_ROLE, to);\n  }\n\n  /**\n   * @dev funzione che revoca il ruolo `CERTIFICATION_MINTER_ROLE` ad un indirizzo.\n   * Questo metodo pu essere invocato solamente dagli indirizzi con il ruolo `ADMIN_ROLE`.\n   * See {grantCertificationMinterRole}.\n   * @param to indirizzo a cui assegnare ruolo `CERTIFICATION_MINTER_ROLE`.\n   */\n  function revokeCertificationMinterRole(address to) public onlyRole(ADMIN_ROLE) {\n    //require(hasRole(ADMIN_ROLE, msg.sender), \"INVALID ROLE: ONLY ADMIN CAN REVOKE THIS ROLE\");\n    _revokeRole(CERTIFICATION_MINTER_ROLE, to);\n  }\n}\n",
  "sourcePath": "/home/alessandro/SDC/progetto-SDC/contracts/RolesManager.sol",
  "compiler": {
    "name": "solc",
    "version": "0.8.9+commit.e5eed63a.Emscripten.clang"
  },
  "schemaVersion": "3.4.3",
  "updatedAt": "2022-01-31T20:45:00.507Z",
  "devdoc": {
    "details": "contratto utile a gestire i ruoli dei diversi indirizzi",
    "kind": "dev",
    "methods": {
      "getRoleAdmin(bytes32)": {
        "details": "Returns the admin role that controls `role`. See {grantRole} and {revokeRole}. To change a role's admin, use {_setRoleAdmin}."
      },
      "grantCertificationMinterRole(address)": {
        "details": "funzione che assegna il ruolo `CERTIFICATION_MINTER_ROLE` che consente ad un indirizzo di generare nuovi certificati. Questo metodo pu essere invocato solamente dagli indirizzi con il ruolo `ADMIN_ROLE`.",
        "params": {
          "to": "indirizzo a cui assegnare ruolo `CERTIFICATION_MINTER_ROLE`."
        }
      },
      "grantRole(bytes32,address)": {
        "details": "Grants `role` to `account`. If `account` had not been already granted `role`, emits a {RoleGranted} event. Requirements: - the caller must have ``role``'s admin role."
      },
      "hasRole(bytes32,address)": {
        "details": "Returns `true` if `account` has been granted `role`."
      },
      "renounceRole(bytes32,address)": {
        "details": "Revokes `role` from the calling account. Roles are often managed via {grantRole} and {revokeRole}: this function's purpose is to provide a mechanism for accounts to lose their privileges if they are compromised (such as when a trusted device is misplaced). If the calling account had been revoked `role`, emits a {RoleRevoked} event. Requirements: - the caller must be `account`."
      },
      "revokeCertificationMinterRole(address)": {
        "details": "funzione che revoca il ruolo `CERTIFICATION_MINTER_ROLE` ad un indirizzo. Questo metodo pu essere invocato solamente dagli indirizzi con il ruolo `ADMIN_ROLE`. See {grantCertificationMinterRole}.",
        "params": {
          "to": "indirizzo a cui assegnare ruolo `CERTIFICATION_MINTER_ROLE`."
        }
      },
      "revokeRole(bytes32,address)": {
        "details": "Revokes `role` from `account`. If `account` had been granted `role`, emits a {RoleRevoked} event. Requirements: - the caller must have ``role``'s admin role."
      },
      "supportsInterface(bytes4)": {
        "details": "See {IERC165-supportsInterface}."
      }
    },
    "version": 1
  },
  "userdoc": {
    "kind": "user",
    "methods": {},
    "version": 1
  }
}