{
  "contractName": "RolesManager",
  "abi": [
    {
      "inputs": [],
      "stateMutability": "nonpayable",
      "type": "constructor"
    },
    {
      "anonymous": false,
      "inputs": [
        {
          "indexed": true,
          "internalType": "bytes32",
          "name": "role",
          "type": "bytes32"
        },
        {
          "indexed": true,
          "internalType": "bytes32",
          "name": "previousAdminRole",
          "type": "bytes32"
        },
        {
          "indexed": true,
          "internalType": "bytes32",
          "name": "newAdminRole",
          "type": "bytes32"
        }
      ],
      "name": "RoleAdminChanged",
      "type": "event"
    },
    {
      "anonymous": false,
      "inputs": [
        {
          "indexed": true,
          "internalType": "bytes32",
          "name": "role",
          "type": "bytes32"
        },
        {
          "indexed": true,
          "internalType": "address",
          "name": "account",
          "type": "address"
        },
        {
          "indexed": true,
          "internalType": "address",
          "name": "sender",
          "type": "address"
        }
      ],
      "name": "RoleGranted",
      "type": "event"
    },
    {
      "anonymous": false,
      "inputs": [
        {
          "indexed": true,
          "internalType": "bytes32",
          "name": "role",
          "type": "bytes32"
        },
        {
          "indexed": true,
          "internalType": "address",
          "name": "account",
          "type": "address"
        },
        {
          "indexed": true,
          "internalType": "address",
          "name": "sender",
          "type": "address"
        }
      ],
      "name": "RoleRevoked",
      "type": "event"
    },
    {
      "inputs": [],
      "name": "ADMIN_ROLE",
      "outputs": [
        {
          "internalType": "bytes32",
          "name": "",
          "type": "bytes32"
        }
      ],
      "stateMutability": "view",
      "type": "function"
    },
    {
      "inputs": [],
      "name": "CERTIFICATION_MINTER_ROLE",
      "outputs": [
        {
          "internalType": "bytes32",
          "name": "",
          "type": "bytes32"
        }
      ],
      "stateMutability": "view",
      "type": "function"
    },
    {
      "inputs": [],
      "name": "DEFAULT_ADMIN_ROLE",
      "outputs": [
        {
          "internalType": "bytes32",
          "name": "",
          "type": "bytes32"
        }
      ],
      "stateMutability": "view",
      "type": "function"
    },
    {
      "inputs": [
        {
          "internalType": "bytes32",
          "name": "role",
          "type": "bytes32"
        }
      ],
      "name": "getRoleAdmin",
      "outputs": [
        {
          "internalType": "bytes32",
          "name": "",
          "type": "bytes32"
        }
      ],
      "stateMutability": "view",
      "type": "function"
    },
    {
      "inputs": [
        {
          "internalType": "bytes32",
          "name": "role",
          "type": "bytes32"
        },
        {
          "internalType": "address",
          "name": "account",
          "type": "address"
        }
      ],
      "name": "grantRole",
      "outputs": [],
      "stateMutability": "nonpayable",
      "type": "function"
    },
    {
      "inputs": [
        {
          "internalType": "bytes32",
          "name": "role",
          "type": "bytes32"
        },
        {
          "internalType": "address",
          "name": "account",
          "type": "address"
        }
      ],
      "name": "hasRole",
      "outputs": [
        {
          "internalType": "bool",
          "name": "",
          "type": "bool"
        }
      ],
      "stateMutability": "view",
      "type": "function"
    },
    {
      "inputs": [
        {
          "internalType": "bytes32",
          "name": "role",
          "type": "bytes32"
        },
        {
          "internalType": "address",
          "name": "account",
          "type": "address"
        }
      ],
      "name": "renounceRole",
      "outputs": [],
      "stateMutability": "nonpayable",
      "type": "function"
    },
    {
      "inputs": [
        {
          "internalType": "bytes32",
          "name": "role",
          "type": "bytes32"
        },
        {
          "internalType": "address",
          "name": "account",
          "type": "address"
        }
      ],
      "name": "revokeRole",
      "outputs": [],
      "stateMutability": "nonpayable",
      "type": "function"
    },
    {
      "inputs": [
        {
          "internalType": "bytes4",
          "name": "interfaceId",
          "type": "bytes4"
        }
      ],
      "name": "supportsInterface",
      "outputs": [
        {
          "internalType": "bool",
          "name": "",
          "type": "bool"
        }
      ],
      "stateMutability": "view",
      "type": "function"
    },
    {
      "inputs": [
        {
          "internalType": "address",
          "name": "to",
          "type": "address"
        }
      ],
      "name": "grantCertificationMinterRole",
      "outputs": [],
      "stateMutability": "nonpayable",
      "type": "function"
    },
    {
      "inputs": [
        {
          "internalType": "address",
          "name": "to",
          "type": "address"
        }
      ],
      "name": "revokeCertificationMinterRole",
      "outputs": [],
      "stateMutability": "nonpayable",
      "type": "function"
    }
  ],
  "bytecode": "0x608060405234801561001057600080fd5b506100417fa49807205ce4d355092ef5a8a18f56e8913cf4a201fbe287825b095693c217753361004660201b60201c565b6101b8565b610056828261005a60201b60201c565b5050565b61006a828261014660201b60201c565b61014257600160008084815260200190815260200160002060000160008373ffffffffffffffffffffffffffffffffffffffff1673ffffffffffffffffffffffffffffffffffffffff16815260200190815260200160002060006101000a81548160ff0219169083151502179055506100e76101b060201b60201c565b73ffffffffffffffffffffffffffffffffffffffff168173ffffffffffffffffffffffffffffffffffffffff16837f2f8788117e7eff1d82e926ec794901d17c78024a50270940304540a733656f0d60405160405180910390a45b5050565b600080600084815260200190815260200160002060000160008373ffffffffffffffffffffffffffffffffffffffff1673ffffffffffffffffffffffffffffffffffffffff16815260200190815260200160002060009054906101000a900460ff16905092915050565b600033905090565b61109d806101c76000396000f3fe608060405234801561001057600080fd5b50600436106100a95760003560e01c80637317d8ab116100715780637317d8ab1461016257806375b238fc1461017e57806391d148541461019c578063a217fddf146101cc578063d547741f146101ea578063eec1eddd14610206576100a9565b806301ffc9a7146100ae578063248a9ca3146100de5780632f2ff15d1461010e57806336568abe1461012a57806362281d8c14610146575b600080fd5b6100c860048036038101906100c39190610a74565b610224565b6040516100d59190610abc565b60405180910390f35b6100f860048036038101906100f39190610b0d565b61029e565b6040516101059190610b49565b60405180910390f35b61012860048036038101906101239190610bc2565b6102bd565b005b610144600480360381019061013f9190610bc2565b6102e6565b005b610160600480360381019061015b9190610c02565b610369565b005b61017c60048036038101906101779190610c02565b6103c9565b005b610186610429565b6040516101939190610b49565b60405180910390f35b6101b660048036038101906101b19190610bc2565b61044d565b6040516101c39190610abc565b60405180910390f35b6101d46104b7565b6040516101e19190610b49565b60405180910390f35b61020460048036038101906101ff9190610bc2565b6104be565b005b61020e6104e7565b60405161021b9190610b49565b60405180910390f35b60007f7965db0b000000000000000000000000000000000000000000000000000000007bffffffffffffffffffffffffffffffffffffffffffffffffffffffff1916827bffffffffffffffffffffffffffffffffffffffffffffffffffffffff1916148061029757506102968261050b565b5b9050919050565b6000806000838152602001908152602001600020600101549050919050565b6102c68261029e565b6102d7816102d2610575565b61057d565b6102e1838361061a565b505050565b6102ee610575565b73ffffffffffffffffffffffffffffffffffffffff168173ffffffffffffffffffffffffffffffffffffffff161461035b576040517f08c379a000000000000000000000000000000000000000000000000000000000815260040161035290610cb2565b60405180910390fd5b61036582826106fa565b5050565b7fa49807205ce4d355092ef5a8a18f56e8913cf4a201fbe287825b095693c2177561039b81610396610575565b61057d565b6103c57f77057c9486c0c0b7bfbe402764b9bf817389ccf31bebf8010b4de82d246292898361061a565b5050565b7fa49807205ce4d355092ef5a8a18f56e8913cf4a201fbe287825b095693c217756103fb816103f6610575565b61057d565b6104257f77057c9486c0c0b7bfbe402764b9bf817389ccf31bebf8010b4de82d24629289836106fa565b5050565b7fa49807205ce4d355092ef5a8a18f56e8913cf4a201fbe287825b095693c2177581565b600080600084815260200190815260200160002060000160008373ffffffffffffffffffffffffffffffffffffffff1673ffffffffffffffffffffffffffffffffffffffff16815260200190815260200160002060009054906101000a900460ff16905092915050565b6000801b81565b6104c78261029e565b6104d8816104d3610575565b61057d565b6104e283836106fa565b505050565b7f77057c9486c0c0b7bfbe402764b9bf817389ccf31bebf8010b4de82d2462928981565b60007f01ffc9a7000000000000000000000000000000000000000000000000000000007bffffffffffffffffffffffffffffffffffffffffffffffffffffffff1916827bffffffffffffffffffffffffffffffffffffffffffffffffffffffff1916149050919050565b600033905090565b610587828261044d565b610616576105ac8173ffffffffffffffffffffffffffffffffffffffff1660146107db565b6105ba8360001c60206107db565b6040516020016105cb929190610de4565b6040516020818303038152906040526040517f08c379a000000000000000000000000000000000000000000000000000000000815260040161060d9190610e68565b60405180910390fd5b5050565b610624828261044d565b6106f657600160008084815260200190815260200160002060000160008373ffffffffffffffffffffffffffffffffffffffff1673ffffffffffffffffffffffffffffffffffffffff16815260200190815260200160002060006101000a81548160ff02191690831515021790555061069b610575565b73ffffffffffffffffffffffffffffffffffffffff168173ffffffffffffffffffffffffffffffffffffffff16837f2f8788117e7eff1d82e926ec794901d17c78024a50270940304540a733656f0d60405160405180910390a45b5050565b610704828261044d565b156107d757600080600084815260200190815260200160002060000160008373ffffffffffffffffffffffffffffffffffffffff1673ffffffffffffffffffffffffffffffffffffffff16815260200190815260200160002060006101000a81548160ff02191690831515021790555061077c610575565b73ffffffffffffffffffffffffffffffffffffffff168173ffffffffffffffffffffffffffffffffffffffff16837ff6391f5c32d9c69d2a47ea670b442974b53935d1edc7fd64eb21e047a839171b60405160405180910390a45b5050565b6060600060028360026107ee9190610ec3565b6107f89190610f1d565b67ffffffffffffffff81111561081157610810610f73565b5b6040519080825280601f01601f1916602001820160405280156108435781602001600182028036833780820191505090505b5090507f30000000000000000000000000000000000000000000000000000000000000008160008151811061087b5761087a610fa2565b5b60200101907effffffffffffffffffffffffffffffffffffffffffffffffffffffffffffff1916908160001a9053507f7800000000000000000000000000000000000000000000000000000000000000816001815181106108df576108de610fa2565b5b60200101907effffffffffffffffffffffffffffffffffffffffffffffffffffffffffffff1916908160001a9053506000600184600261091f9190610ec3565b6109299190610f1d565b90505b60018111156109c9577f3031323334353637383961626364656600000000000000000000000000000000600f86166010811061096b5761096a610fa2565b5b1a60f81b82828151811061098257610981610fa2565b5b60200101907effffffffffffffffffffffffffffffffffffffffffffffffffffffffffffff1916908160001a905350600485901c9450806109c290610fd1565b905061092c565b5060008414610a0d576040517f08c379a0000000000000000000000000000000000000000000000000000000008152600401610a0490611047565b60405180910390fd5b8091505092915050565b600080fd5b60007fffffffff0000000000000000000000000000000000000000000000000000000082169050919050565b610a5181610a1c565b8114610a5c57600080fd5b50565b600081359050610a6e81610a48565b92915050565b600060208284031215610a8a57610a89610a17565b5b6000610a9884828501610a5f565b91505092915050565b60008115159050919050565b610ab681610aa1565b82525050565b6000602082019050610ad16000830184610aad565b92915050565b6000819050919050565b610aea81610ad7565b8114610af557600080fd5b50565b600081359050610b0781610ae1565b92915050565b600060208284031215610b2357610b22610a17565b5b6000610b3184828501610af8565b91505092915050565b610b4381610ad7565b82525050565b6000602082019050610b5e6000830184610b3a565b92915050565b600073ffffffffffffffffffffffffffffffffffffffff82169050919050565b6000610b8f82610b64565b9050919050565b610b9f81610b84565b8114610baa57600080fd5b50565b600081359050610bbc81610b96565b92915050565b60008060408385031215610bd957610bd8610a17565b5b6000610be785828601610af8565b9250506020610bf885828601610bad565b9150509250929050565b600060208284031215610c1857610c17610a17565b5b6000610c2684828501610bad565b91505092915050565b600082825260208201905092915050565b7f416363657373436f6e74726f6c3a2063616e206f6e6c792072656e6f756e636560008201527f20726f6c657320666f722073656c660000000000000000000000000000000000602082015250565b6000610c9c602f83610c2f565b9150610ca782610c40565b604082019050919050565b60006020820190508181036000830152610ccb81610c8f565b9050919050565b600081905092915050565b7f416363657373436f6e74726f6c3a206163636f756e7420000000000000000000600082015250565b6000610d13601783610cd2565b9150610d1e82610cdd565b601782019050919050565b600081519050919050565b60005b83811015610d52578082015181840152602081019050610d37565b83811115610d61576000848401525b50505050565b6000610d7282610d29565b610d7c8185610cd2565b9350610d8c818560208601610d34565b80840191505092915050565b7f206973206d697373696e6720726f6c6520000000000000000000000000000000600082015250565b6000610dce601183610cd2565b9150610dd982610d98565b601182019050919050565b6000610def82610d06565b9150610dfb8285610d67565b9150610e0682610dc1565b9150610e128284610d67565b91508190509392505050565b6000601f19601f8301169050919050565b6000610e3a82610d29565b610e448185610c2f565b9350610e54818560208601610d34565b610e5d81610e1e565b840191505092915050565b60006020820190508181036000830152610e828184610e2f565b905092915050565b6000819050919050565b7f4e487b7100000000000000000000000000000000000000000000000000000000600052601160045260246000fd5b6000610ece82610e8a565b9150610ed983610e8a565b9250817fffffffffffffffffffffffffffffffffffffffffffffffffffffffffffffffff0483118215151615610f1257610f11610e94565b5b828202905092915050565b6000610f2882610e8a565b9150610f3383610e8a565b9250827fffffffffffffffffffffffffffffffffffffffffffffffffffffffffffffffff03821115610f6857610f67610e94565b5b828201905092915050565b7f4e487b7100000000000000000000000000000000000000000000000000000000600052604160045260246000fd5b7f4e487b7100000000000000000000000000000000000000000000000000000000600052603260045260246000fd5b6000610fdc82610e8a565b91506000821415610ff057610fef610e94565b5b600182039050919050565b7f537472696e67733a20686578206c656e67746820696e73756666696369656e74600082015250565b6000611031602083610c2f565b915061103c82610ffb565b602082019050919050565b6000602082019050818103600083015261106081611024565b905091905056fea264697066735822122034d568015c8fa76a802a9d09aef0260670a141392026f97175d5df6e0e180d8364736f6c63430008090033",
  "immutableReferences": {},
  "source": "// SPDX-License-Identifier: MIT\npragma solidity >=0.4.22 <0.9.0;\n\nimport \"@openzeppelin/contracts/access/AccessControl.sol\";\n\n/**\n * @dev contratto utile a gestire i ruoli dei diversi indirizzi\n */\ncontract RolesManager is AccessControl {\n  // ROLES\n  bytes32 public constant ADMIN_ROLE = keccak256(\"ADMIN_ROLE\");\n  bytes32 public constant CERTIFICATION_MINTER_ROLE = keccak256(\"CERTIFICATION_MINTER_ROLE\");\n\n  constructor () {\n    _setupRole(ADMIN_ROLE, msg.sender);\n  }\n\n  /**\n   * @dev funzione che assegna il ruolo `CERTIFICATION_MINTER_ROLE` che consente ad un indirizzo di generare nuovi certificati.\n   * Questo metodo pu essere invocato solamente dagli indirizzi con il ruolo `ADMIN_ROLE`.\n   * @param to indirizzo a cui assegnare ruolo `CERTIFICATION_MINTER_ROLE`.\n   */\n  function grantCertificationMinterRole(address to) public onlyRole(ADMIN_ROLE) {\n    //require(hasRole(ADMIN_ROLE, msg.sender), \"INVALID ROLE: ONLY ADMIN CAN GRANT THIS ROLE\");\n    _grantRole(CERTIFICATION_MINTER_ROLE, to);\n  }\n\n  /**\n   * @dev funzione che revoca il ruolo `CERTIFICATION_MINTER_ROLE` ad un indirizzo.\n   * Questo metodo pu essere invocato solamente dagli indirizzi con il ruolo `ADMIN_ROLE`.\n   * See {grantCertificationMinterRole}.\n   * @param to indirizzo a cui assegnare ruolo `CERTIFICATION_MINTER_ROLE`.\n   */\n  function revokeCertificationMinterRole(address to) public onlyRole(ADMIN_ROLE) {\n    //require(hasRole(ADMIN_ROLE, msg.sender), \"INVALID ROLE: ONLY ADMIN CAN REVOKE THIS ROLE\");\n    _revokeRole(CERTIFICATION_MINTER_ROLE, to);\n  }\n}\n",
  "sourcePath": "/home/alessandro/SDC/progetto-SDC/contracts/RolesManager.sol",
  "compiler": {
    "name": "solc",
    "version": "0.8.9+commit.e5eed63a.Emscripten.clang"
  },
  "schemaVersion": "3.4.3",
  "updatedAt": "2022-02-01T00:19:25.300Z",
  "devdoc": {
    "details": "contratto utile a gestire i ruoli dei diversi indirizzi",
    "kind": "dev",
    "methods": {
      "getRoleAdmin(bytes32)": {
        "details": "Returns the admin role that controls `role`. See {grantRole} and {revokeRole}. To change a role's admin, use {_setRoleAdmin}."
      },
      "grantCertificationMinterRole(address)": {
        "details": "funzione che assegna il ruolo `CERTIFICATION_MINTER_ROLE` che consente ad un indirizzo di generare nuovi certificati. Questo metodo pu essere invocato solamente dagli indirizzi con il ruolo `ADMIN_ROLE`.",
        "params": {
          "to": "indirizzo a cui assegnare ruolo `CERTIFICATION_MINTER_ROLE`."
        }
      },
      "grantRole(bytes32,address)": {
        "details": "Grants `role` to `account`. If `account` had not been already granted `role`, emits a {RoleGranted} event. Requirements: - the caller must have ``role``'s admin role."
      },
      "hasRole(bytes32,address)": {
        "details": "Returns `true` if `account` has been granted `role`."
      },
      "renounceRole(bytes32,address)": {
        "details": "Revokes `role` from the calling account. Roles are often managed via {grantRole} and {revokeRole}: this function's purpose is to provide a mechanism for accounts to lose their privileges if they are compromised (such as when a trusted device is misplaced). If the calling account had been revoked `role`, emits a {RoleRevoked} event. Requirements: - the caller must be `account`."
      },
      "revokeCertificationMinterRole(address)": {
        "details": "funzione che revoca il ruolo `CERTIFICATION_MINTER_ROLE` ad un indirizzo. Questo metodo pu essere invocato solamente dagli indirizzi con il ruolo `ADMIN_ROLE`. See {grantCertificationMinterRole}.",
        "params": {
          "to": "indirizzo a cui assegnare ruolo `CERTIFICATION_MINTER_ROLE`."
        }
      },
      "revokeRole(bytes32,address)": {
        "details": "Revokes `role` from `account`. If `account` had been granted `role`, emits a {RoleRevoked} event. Requirements: - the caller must have ``role``'s admin role."
      },
      "supportsInterface(bytes4)": {
        "details": "See {IERC165-supportsInterface}."
      }
    },
    "version": 1
  },
  "userdoc": {
    "kind": "user",
    "methods": {},
    "version": 1
  }
}